{
  "_format": "hh-sol-artifact-1",
  "contractName": "TestERC20",
  "sourceName": "contracts/test/TestERC20.sol",
  "abi": [
    {
      "inputs": [
        {
          "internalType": "uint256",
          "name": "amountToMint",
          "type": "uint256"
        }
      ],
      "stateMutability": "nonpayable",
      "type": "constructor"
    },
    {
      "anonymous": false,
      "inputs": [
        {
          "indexed": true,
          "internalType": "address",
          "name": "owner",
          "type": "address"
        },
        {
          "indexed": true,
          "internalType": "address",
          "name": "spender",
          "type": "address"
        },
        {
          "indexed": false,
          "internalType": "uint256",
          "name": "value",
          "type": "uint256"
        }
      ],
      "name": "Approval",
      "type": "event"
    },
    {
      "anonymous": false,
      "inputs": [
        {
          "indexed": true,
          "internalType": "address",
          "name": "from",
          "type": "address"
        },
        {
          "indexed": true,
          "internalType": "address",
          "name": "to",
          "type": "address"
        },
        {
          "indexed": false,
          "internalType": "uint256",
          "name": "value",
          "type": "uint256"
        }
      ],
      "name": "Transfer",
      "type": "event"
    },
    {
      "inputs": [],
      "name": "DOMAIN_SEPARATOR",
      "outputs": [
        {
          "internalType": "bytes32",
          "name": "",
          "type": "bytes32"
        }
      ],
      "stateMutability": "view",
      "type": "function"
    },
    {
      "inputs": [
        {
          "internalType": "address",
          "name": "owner",
          "type": "address"
        },
        {
          "internalType": "address",
          "name": "spender",
          "type": "address"
        }
      ],
      "name": "allowance",
      "outputs": [
        {
          "internalType": "uint256",
          "name": "",
          "type": "uint256"
        }
      ],
      "stateMutability": "view",
      "type": "function"
    },
    {
      "inputs": [
        {
          "internalType": "address",
          "name": "spender",
          "type": "address"
        },
        {
          "internalType": "uint256",
          "name": "amount",
          "type": "uint256"
        }
      ],
      "name": "approve",
      "outputs": [
        {
          "internalType": "bool",
          "name": "",
          "type": "bool"
        }
      ],
      "stateMutability": "nonpayable",
      "type": "function"
    },
    {
      "inputs": [
        {
          "internalType": "address",
          "name": "account",
          "type": "address"
        }
      ],
      "name": "balanceOf",
      "outputs": [
        {
          "internalType": "uint256",
          "name": "",
          "type": "uint256"
        }
      ],
      "stateMutability": "view",
      "type": "function"
    },
    {
      "inputs": [],
      "name": "decimals",
      "outputs": [
        {
          "internalType": "uint8",
          "name": "",
          "type": "uint8"
        }
      ],
      "stateMutability": "view",
      "type": "function"
    },
    {
      "inputs": [
        {
          "internalType": "address",
          "name": "spender",
          "type": "address"
        },
        {
          "internalType": "uint256",
          "name": "subtractedValue",
          "type": "uint256"
        }
      ],
      "name": "decreaseAllowance",
      "outputs": [
        {
          "internalType": "bool",
          "name": "",
          "type": "bool"
        }
      ],
      "stateMutability": "nonpayable",
      "type": "function"
    },
    {
      "inputs": [
        {
          "internalType": "address",
          "name": "spender",
          "type": "address"
        },
        {
          "internalType": "uint256",
          "name": "addedValue",
          "type": "uint256"
        }
      ],
      "name": "increaseAllowance",
      "outputs": [
        {
          "internalType": "bool",
          "name": "",
          "type": "bool"
        }
      ],
      "stateMutability": "nonpayable",
      "type": "function"
    },
    {
      "inputs": [],
      "name": "name",
      "outputs": [
        {
          "internalType": "string",
          "name": "",
          "type": "string"
        }
      ],
      "stateMutability": "view",
      "type": "function"
    },
    {
      "inputs": [
        {
          "internalType": "address",
          "name": "owner",
          "type": "address"
        }
      ],
      "name": "nonces",
      "outputs": [
        {
          "internalType": "uint256",
          "name": "",
          "type": "uint256"
        }
      ],
      "stateMutability": "view",
      "type": "function"
    },
    {
      "inputs": [
        {
          "internalType": "address",
          "name": "owner",
          "type": "address"
        },
        {
          "internalType": "address",
          "name": "spender",
          "type": "address"
        },
        {
          "internalType": "uint256",
          "name": "value",
          "type": "uint256"
        },
        {
          "internalType": "uint256",
          "name": "deadline",
          "type": "uint256"
        },
        {
          "internalType": "uint8",
          "name": "v",
          "type": "uint8"
        },
        {
          "internalType": "bytes32",
          "name": "r",
          "type": "bytes32"
        },
        {
          "internalType": "bytes32",
          "name": "s",
          "type": "bytes32"
        }
      ],
      "name": "permit",
      "outputs": [],
      "stateMutability": "nonpayable",
      "type": "function"
    },
    {
      "inputs": [],
      "name": "symbol",
      "outputs": [
        {
          "internalType": "string",
          "name": "",
          "type": "string"
        }
      ],
      "stateMutability": "view",
      "type": "function"
    },
    {
      "inputs": [],
      "name": "totalSupply",
      "outputs": [
        {
          "internalType": "uint256",
          "name": "",
          "type": "uint256"
        }
      ],
      "stateMutability": "view",
      "type": "function"
    },
    {
      "inputs": [
        {
          "internalType": "address",
          "name": "recipient",
          "type": "address"
        },
        {
          "internalType": "uint256",
          "name": "amount",
          "type": "uint256"
        }
      ],
      "name": "transfer",
      "outputs": [
        {
          "internalType": "bool",
          "name": "",
          "type": "bool"
        }
      ],
      "stateMutability": "nonpayable",
      "type": "function"
    },
    {
      "inputs": [
        {
          "internalType": "address",
          "name": "sender",
          "type": "address"
        },
        {
          "internalType": "address",
          "name": "recipient",
          "type": "address"
        },
        {
          "internalType": "uint256",
          "name": "amount",
          "type": "uint256"
        }
      ],
      "name": "transferFrom",
      "outputs": [
        {
          "internalType": "bool",
          "name": "",
          "type": "bool"
        }
      ],
      "stateMutability": "nonpayable",
      "type": "function"
    }
  ],
  "bytecode": "0x6101606040527f6e71edae12b1b97f4d1f60370fef10105fa2faae0126114a169c64845d6126c9610140908152503480156200003a57600080fd5b50604051620028d1380380620028d18339818101604052810190620000609190620004e7565b6040518060400160405280600a81526020017f5465737420455243323000000000000000000000000000000000000000000000815250806040518060400160405280600181526020017f31000000000000000000000000000000000000000000000000000000000000008152506040518060400160405280600a81526020017f54657374204552433230000000000000000000000000000000000000000000008152506040518060400160405280600481526020017f5445535400000000000000000000000000000000000000000000000000000000815250816003908051906020019062000151929190620003f7565b5080600490805190602001906200016a929190620003f7565b50505060008280519060200120905060008280519060200120905060007f8b73c3c69bb8fe3d512ecc4cf759cc79239f7b179b0ffacaa9a75d522b39400f90508260e081815250508161010081815250504660a08181525050620001d68184846200023960201b60201c565b608081815250503073ffffffffffffffffffffffffffffffffffffffff1660c08173ffffffffffffffffffffffffffffffffffffffff16815250508061012081815250505050505050506200023233826200027560201b60201c565b5062000777565b60008383834630604051602001620002569594939291906200058a565b6040516020818303038152906040528051906020012090509392505050565b600073ffffffffffffffffffffffffffffffffffffffff168273ffffffffffffffffffffffffffffffffffffffff1603620002e7576040517f08c379a0000000000000000000000000000000000000000000000000000000008152600401620002de9062000648565b60405180910390fd5b620002fb60008383620003ed60201b60201c565b80600260008282546200030f919062000699565b92505081905550806000808473ffffffffffffffffffffffffffffffffffffffff1673ffffffffffffffffffffffffffffffffffffffff168152602001908152602001600020600082825462000366919062000699565b925050819055508173ffffffffffffffffffffffffffffffffffffffff16600073ffffffffffffffffffffffffffffffffffffffff167fddf252ad1be2c89b69c2b068fc378daa952ba7f163c4a11628f55a4df523b3ef83604051620003cd9190620006f6565b60405180910390a3620003e960008383620003f260201b60201c565b5050565b505050565b505050565b828054620004059062000742565b90600052602060002090601f01602090048101928262000429576000855562000475565b82601f106200044457805160ff191683800117855562000475565b8280016001018555821562000475579182015b828111156200047457825182559160200191906001019062000457565b5b50905062000484919062000488565b5090565b5b80821115620004a357600081600090555060010162000489565b5090565b600080fd5b6000819050919050565b620004c181620004ac565b8114620004cd57600080fd5b50565b600081519050620004e181620004b6565b92915050565b6000602082840312156200050057620004ff620004a7565b5b60006200051084828501620004d0565b91505092915050565b6000819050919050565b6200052e8162000519565b82525050565b6200053f81620004ac565b82525050565b600073ffffffffffffffffffffffffffffffffffffffff82169050919050565b6000620005728262000545565b9050919050565b620005848162000565565b82525050565b600060a082019050620005a1600083018862000523565b620005b0602083018762000523565b620005bf604083018662000523565b620005ce606083018562000534565b620005dd608083018462000579565b9695505050505050565b600082825260208201905092915050565b7f45524332303a206d696e7420746f20746865207a65726f206164647265737300600082015250565b600062000630601f83620005e7565b91506200063d82620005f8565b602082019050919050565b60006020820190508181036000830152620006638162000621565b9050919050565b7f4e487b7100000000000000000000000000000000000000000000000000000000600052601160045260246000fd5b6000620006a682620004ac565b9150620006b383620004ac565b9250827fffffffffffffffffffffffffffffffffffffffffffffffffffffffffffffffff03821115620006eb57620006ea6200066a565b5b828201905092915050565b60006020820190506200070d600083018462000534565b92915050565b7f4e487b7100000000000000000000000000000000000000000000000000000000600052602260045260246000fd5b600060028204905060018216806200075b57607f821691505b60208210810362000771576200077062000713565b5b50919050565b60805160a05160c05160e0516101005161012051610140516120ff620007d2600039600061081101526000610e9101526000610ed301526000610eb201526000610de701526000610e3d01526000610e6601526120ff6000f3fe608060405234801561001057600080fd5b50600436106100ea5760003560e01c806370a082311161008c578063a457c2d711610066578063a457c2d714610275578063a9059cbb146102a5578063d505accf146102d5578063dd62ed3e146102f1576100ea565b806370a08231146101f75780637ecebe001461022757806395d89b4114610257576100ea565b806323b872dd116100c857806323b872dd1461015b578063313ce5671461018b5780633644e515146101a957806339509351146101c7576100ea565b806306fdde03146100ef578063095ea7b31461010d57806318160ddd1461013d575b600080fd5b6100f7610321565b60405161010491906113ac565b60405180910390f35b61012760048036038101906101229190611467565b6103b3565b60405161013491906114c2565b60405180910390f35b6101456103d1565b60405161015291906114ec565b60405180910390f35b61017560048036038101906101709190611507565b6103db565b60405161018291906114c2565b60405180910390f35b6101936104d3565b6040516101a09190611576565b60405180910390f35b6101b16104dc565b6040516101be91906115aa565b60405180910390f35b6101e160048036038101906101dc9190611467565b6104eb565b6040516101ee91906114c2565b60405180910390f35b610211600480360381019061020c91906115c5565b610597565b60405161021e91906114ec565b60405180910390f35b610241600480360381019061023c91906115c5565b6105df565b60405161024e91906114ec565b60405180910390f35b61025f61062f565b60405161026c91906113ac565b60405180910390f35b61028f600480360381019061028a9190611467565b6106c1565b60405161029c91906114c2565b60405180910390f35b6102bf60048036038101906102ba9190611467565b6107ac565b6040516102cc91906114c2565b60405180910390f35b6102ef60048036038101906102ea919061164a565b6107ca565b005b61030b600480360381019061030691906116ec565b61090c565b60405161031891906114ec565b60405180910390f35b6060600380546103309061175b565b80601f016020809104026020016040519081016040528092919081815260200182805461035c9061175b565b80156103a95780601f1061037e576101008083540402835291602001916103a9565b820191906000526020600020905b81548152906001019060200180831161038c57829003601f168201915b5050505050905090565b60006103c76103c0610993565b848461099b565b6001905092915050565b6000600254905090565b60006103e8848484610b64565b6000600160008673ffffffffffffffffffffffffffffffffffffffff1673ffffffffffffffffffffffffffffffffffffffff1681526020019081526020016000206000610433610993565b73ffffffffffffffffffffffffffffffffffffffff1673ffffffffffffffffffffffffffffffffffffffff168152602001908152602001600020549050828110156104b3576040517f08c379a00000000000000000000000000000000000000000000000000000000081526004016104aa906117fe565b60405180910390fd5b6104c7856104bf610993565b85840361099b565b60019150509392505050565b60006012905090565b60006104e6610de3565b905090565b600061058d6104f8610993565b848460016000610506610993565b73ffffffffffffffffffffffffffffffffffffffff1673ffffffffffffffffffffffffffffffffffffffff16815260200190815260200160002060008873ffffffffffffffffffffffffffffffffffffffff1673ffffffffffffffffffffffffffffffffffffffff16815260200190815260200160002054610588919061184d565b61099b565b6001905092915050565b60008060008373ffffffffffffffffffffffffffffffffffffffff1673ffffffffffffffffffffffffffffffffffffffff168152602001908152602001600020549050919050565b6000610628600560008473ffffffffffffffffffffffffffffffffffffffff1673ffffffffffffffffffffffffffffffffffffffff168152602001908152602001600020610efd565b9050919050565b60606004805461063e9061175b565b80601f016020809104026020016040519081016040528092919081815260200182805461066a9061175b565b80156106b75780601f1061068c576101008083540402835291602001916106b7565b820191906000526020600020905b81548152906001019060200180831161069a57829003601f168201915b5050505050905090565b600080600160006106d0610993565b73ffffffffffffffffffffffffffffffffffffffff1673ffffffffffffffffffffffffffffffffffffffff16815260200190815260200160002060008573ffffffffffffffffffffffffffffffffffffffff1673ffffffffffffffffffffffffffffffffffffffff1681526020019081526020016000205490508281101561078d576040517f08c379a000000000000000000000000000000000000000000000000000000000815260040161078490611915565b60405180910390fd5b6107a1610798610993565b8585840361099b565b600191505092915050565b60006107c06107b9610993565b8484610b64565b6001905092915050565b8342111561080d576040517f08c379a000000000000000000000000000000000000000000000000000000000815260040161080490611981565b60405180910390fd5b60007f000000000000000000000000000000000000000000000000000000000000000088888861083c8c610f0b565b89604051602001610852969594939291906119b0565b604051602081830303815290604052805190602001209050600061087582610f69565b9050600061088582878787610f83565b90508973ffffffffffffffffffffffffffffffffffffffff168173ffffffffffffffffffffffffffffffffffffffff16146108f5576040517f08c379a00000000000000000000000000000000000000000000000000000000081526004016108ec90611a5d565b60405180910390fd5b6109008a8a8a61099b565b50505050505050505050565b6000600160008473ffffffffffffffffffffffffffffffffffffffff1673ffffffffffffffffffffffffffffffffffffffff16815260200190815260200160002060008373ffffffffffffffffffffffffffffffffffffffff1673ffffffffffffffffffffffffffffffffffffffff16815260200190815260200160002054905092915050565b600033905090565b600073ffffffffffffffffffffffffffffffffffffffff168373ffffffffffffffffffffffffffffffffffffffff1603610a0a576040517f08c379a0000000000000000000000000000000000000000000000000000000008152600401610a0190611aef565b60405180910390fd5b600073ffffffffffffffffffffffffffffffffffffffff168273ffffffffffffffffffffffffffffffffffffffff1603610a79576040517f08c379a0000000000000000000000000000000000000000000000000000000008152600401610a7090611b81565b60405180910390fd5b80600160008573ffffffffffffffffffffffffffffffffffffffff1673ffffffffffffffffffffffffffffffffffffffff16815260200190815260200160002060008473ffffffffffffffffffffffffffffffffffffffff1673ffffffffffffffffffffffffffffffffffffffff168152602001908152602001600020819055508173ffffffffffffffffffffffffffffffffffffffff168373ffffffffffffffffffffffffffffffffffffffff167f8c5be1e5ebec7d5bd14f71427d1e84f3dd0314c0f7b2291e5b200ac8c7c3b92583604051610b5791906114ec565b60405180910390a3505050565b600073ffffffffffffffffffffffffffffffffffffffff168373ffffffffffffffffffffffffffffffffffffffff1603610bd3576040517f08c379a0000000000000000000000000000000000000000000000000000000008152600401610bca90611c13565b60405180910390fd5b600073ffffffffffffffffffffffffffffffffffffffff168273ffffffffffffffffffffffffffffffffffffffff1603610c42576040517f08c379a0000000000000000000000000000000000000000000000000000000008152600401610c3990611ca5565b60405180910390fd5b610c4d838383610fae565b60008060008573ffffffffffffffffffffffffffffffffffffffff1673ffffffffffffffffffffffffffffffffffffffff16815260200190815260200160002054905081811015610cd3576040517f08c379a0000000000000000000000000000000000000000000000000000000008152600401610cca90611d37565b60405180910390fd5b8181036000808673ffffffffffffffffffffffffffffffffffffffff1673ffffffffffffffffffffffffffffffffffffffff16815260200190815260200160002081905550816000808573ffffffffffffffffffffffffffffffffffffffff1673ffffffffffffffffffffffffffffffffffffffff1681526020019081526020016000206000828254610d66919061184d565b925050819055508273ffffffffffffffffffffffffffffffffffffffff168473ffffffffffffffffffffffffffffffffffffffff167fddf252ad1be2c89b69c2b068fc378daa952ba7f163c4a11628f55a4df523b3ef84604051610dca91906114ec565b60405180910390a3610ddd848484610fb3565b50505050565b60007f000000000000000000000000000000000000000000000000000000000000000073ffffffffffffffffffffffffffffffffffffffff163073ffffffffffffffffffffffffffffffffffffffff16148015610e5f57507f000000000000000000000000000000000000000000000000000000000000000046145b15610e8c577f00000000000000000000000000000000000000000000000000000000000000009050610efa565b610ef77f00000000000000000000000000000000000000000000000000000000000000007f00000000000000000000000000000000000000000000000000000000000000007f0000000000000000000000000000000000000000000000000000000000000000610fb8565b90505b90565b600081600001549050919050565b600080600560008473ffffffffffffffffffffffffffffffffffffffff1673ffffffffffffffffffffffffffffffffffffffff1681526020019081526020016000209050610f5881610efd565b9150610f6381610ff2565b50919050565b6000610f7c610f76610de3565b83611008565b9050919050565b6000806000610f948787878761103b565b91509150610fa181611147565b8192505050949350505050565b505050565b505050565b60008383834630604051602001610fd3959493929190611d57565b6040516020818303038152906040528051906020012090509392505050565b6001816000016000828254019250508190555050565b6000828260405160200161101d929190611e22565b60405160208183030381529060405280519060200120905092915050565b6000807f7fffffffffffffffffffffffffffffff5d576e7357a4501ddfe92f46681b20a08360001c111561107657600060039150915061113e565b601b8560ff161415801561108e5750601c8560ff1614155b156110a057600060049150915061113e565b6000600187878787604051600081526020016040526040516110c59493929190611e59565b6020604051602081039080840390855afa1580156110e7573d6000803e3d6000fd5b505050602060405103519050600073ffffffffffffffffffffffffffffffffffffffff168173ffffffffffffffffffffffffffffffffffffffff16036111355760006001925092505061113e565b80600092509250505b94509492505050565b6000600481111561115b5761115a611e9e565b5b81600481111561116e5761116d611e9e565b5b0315611310576001600481111561118857611187611e9e565b5b81600481111561119b5761119a611e9e565b5b036111db576040517f08c379a00000000000000000000000000000000000000000000000000000000081526004016111d290611f19565b60405180910390fd5b600260048111156111ef576111ee611e9e565b5b81600481111561120257611201611e9e565b5b03611242576040517f08c379a000000000000000000000000000000000000000000000000000000000815260040161123990611f85565b60405180910390fd5b6003600481111561125657611255611e9e565b5b81600481111561126957611268611e9e565b5b036112a9576040517f08c379a00000000000000000000000000000000000000000000000000000000081526004016112a090612017565b60405180910390fd5b6004808111156112bc576112bb611e9e565b5b8160048111156112cf576112ce611e9e565b5b0361130f576040517f08c379a0000000000000000000000000000000000000000000000000000000008152600401611306906120a9565b60405180910390fd5b5b50565b600081519050919050565b600082825260208201905092915050565b60005b8381101561134d578082015181840152602081019050611332565b8381111561135c576000848401525b50505050565b6000601f19601f8301169050919050565b600061137e82611313565b611388818561131e565b935061139881856020860161132f565b6113a181611362565b840191505092915050565b600060208201905081810360008301526113c68184611373565b905092915050565b600080fd5b600073ffffffffffffffffffffffffffffffffffffffff82169050919050565b60006113fe826113d3565b9050919050565b61140e816113f3565b811461141957600080fd5b50565b60008135905061142b81611405565b92915050565b6000819050919050565b61144481611431565b811461144f57600080fd5b50565b6000813590506114618161143b565b92915050565b6000806040838503121561147e5761147d6113ce565b5b600061148c8582860161141c565b925050602061149d85828601611452565b9150509250929050565b60008115159050919050565b6114bc816114a7565b82525050565b60006020820190506114d760008301846114b3565b92915050565b6114e681611431565b82525050565b600060208201905061150160008301846114dd565b92915050565b6000806000606084860312156115205761151f6113ce565b5b600061152e8682870161141c565b935050602061153f8682870161141c565b925050604061155086828701611452565b9150509250925092565b600060ff82169050919050565b6115708161155a565b82525050565b600060208201905061158b6000830184611567565b92915050565b6000819050919050565b6115a481611591565b82525050565b60006020820190506115bf600083018461159b565b92915050565b6000602082840312156115db576115da6113ce565b5b60006115e98482850161141c565b91505092915050565b6115fb8161155a565b811461160657600080fd5b50565b600081359050611618816115f2565b92915050565b61162781611591565b811461163257600080fd5b50565b6000813590506116448161161e565b92915050565b600080600080600080600060e0888a031215611669576116686113ce565b5b60006116778a828b0161141c565b97505060206116888a828b0161141c565b96505060406116998a828b01611452565b95505060606116aa8a828b01611452565b94505060806116bb8a828b01611609565b93505060a06116cc8a828b01611635565b92505060c06116dd8a828b01611635565b91505092959891949750929550565b60008060408385031215611703576117026113ce565b5b60006117118582860161141c565b92505060206117228582860161141c565b9150509250929050565b7f4e487b7100000000000000000000000000000000000000000000000000000000600052602260045260246000fd5b6000600282049050600182168061177357607f821691505b6020821081036117865761178561172c565b5b50919050565b7f45524332303a207472616e7366657220616d6f756e742065786365656473206160008201527f6c6c6f77616e6365000000000000000000000000000000000000000000000000602082015250565b60006117e860288361131e565b91506117f38261178c565b604082019050919050565b60006020820190508181036000830152611817816117db565b9050919050565b7f4e487b7100000000000000000000000000000000000000000000000000000000600052601160045260246000fd5b600061185882611431565b915061186383611431565b9250827fffffffffffffffffffffffffffffffffffffffffffffffffffffffffffffffff038211156118985761189761181e565b5b828201905092915050565b7f45524332303a2064656372656173656420616c6c6f77616e63652062656c6f7760008201527f207a65726f000000000000000000000000000000000000000000000000000000602082015250565b60006118ff60258361131e565b915061190a826118a3565b604082019050919050565b6000602082019050818103600083015261192e816118f2565b9050919050565b7f45524332305065726d69743a206578706972656420646561646c696e65000000600082015250565b600061196b601d8361131e565b915061197682611935565b602082019050919050565b6000602082019050818103600083015261199a8161195e565b9050919050565b6119aa816113f3565b82525050565b600060c0820190506119c5600083018961159b565b6119d260208301886119a1565b6119df60408301876119a1565b6119ec60608301866114dd565b6119f960808301856114dd565b611a0660a08301846114dd565b979650505050505050565b7f45524332305065726d69743a20696e76616c6964207369676e61747572650000600082015250565b6000611a47601e8361131e565b9150611a5282611a11565b602082019050919050565b60006020820190508181036000830152611a7681611a3a565b9050919050565b7f45524332303a20617070726f76652066726f6d20746865207a65726f2061646460008201527f7265737300000000000000000000000000000000000000000000000000000000602082015250565b6000611ad960248361131e565b9150611ae482611a7d565b604082019050919050565b60006020820190508181036000830152611b0881611acc565b9050919050565b7f45524332303a20617070726f766520746f20746865207a65726f20616464726560008201527f7373000000000000000000000000000000000000000000000000000000000000602082015250565b6000611b6b60228361131e565b9150611b7682611b0f565b604082019050919050565b60006020820190508181036000830152611b9a81611b5e565b9050919050565b7f45524332303a207472616e736665722066726f6d20746865207a65726f20616460008201527f6472657373000000000000000000000000000000000000000000000000000000602082015250565b6000611bfd60258361131e565b9150611c0882611ba1565b604082019050919050565b60006020820190508181036000830152611c2c81611bf0565b9050919050565b7f45524332303a207472616e7366657220746f20746865207a65726f206164647260008201527f6573730000000000000000000000000000000000000000000000000000000000602082015250565b6000611c8f60238361131e565b9150611c9a82611c33565b604082019050919050565b60006020820190508181036000830152611cbe81611c82565b9050919050565b7f45524332303a207472616e7366657220616d6f756e742065786365656473206260008201527f616c616e63650000000000000000000000000000000000000000000000000000602082015250565b6000611d2160268361131e565b9150611d2c82611cc5565b604082019050919050565b60006020820190508181036000830152611d5081611d14565b9050919050565b600060a082019050611d6c600083018861159b565b611d79602083018761159b565b611d86604083018661159b565b611d9360608301856114dd565b611da060808301846119a1565b9695505050505050565b600081905092915050565b7f1901000000000000000000000000000000000000000000000000000000000000600082015250565b6000611deb600283611daa565b9150611df682611db5565b600282019050919050565b6000819050919050565b611e1c611e1782611591565b611e01565b82525050565b6000611e2d82611dde565b9150611e398285611e0b565b602082019150611e498284611e0b565b6020820191508190509392505050565b6000608082019050611e6e600083018761159b565b611e7b6020830186611567565b611e88604083018561159b565b611e95606083018461159b565b95945050505050565b7f4e487b7100000000000000000000000000000000000000000000000000000000600052602160045260246000fd5b7f45434453413a20696e76616c6964207369676e61747572650000000000000000600082015250565b6000611f0360188361131e565b9150611f0e82611ecd565b602082019050919050565b60006020820190508181036000830152611f3281611ef6565b9050919050565b7f45434453413a20696e76616c6964207369676e6174757265206c656e67746800600082015250565b6000611f6f601f8361131e565b9150611f7a82611f39565b602082019050919050565b60006020820190508181036000830152611f9e81611f62565b9050919050565b7f45434453413a20696e76616c6964207369676e6174757265202773272076616c60008201527f7565000000000000000000000000000000000000000000000000000000000000602082015250565b600061200160228361131e565b915061200c82611fa5565b604082019050919050565b6000602082019050818103600083015261203081611ff4565b9050919050565b7f45434453413a20696e76616c6964207369676e6174757265202776272076616c60008201527f7565000000000000000000000000000000000000000000000000000000000000602082015250565b600061209360228361131e565b915061209e82612037565b604082019050919050565b600060208201905081810360008301526120c281612086565b905091905056fea2646970667358221220c4f8f928035585af354a8eb55ba1ec7dbd3d0cd2a3fca8099976c47879ac621764736f6c634300080e0033",
  "linkReferences": {},
  "deployedLinkReferences": {}
}