{
  "_format": "hh-sol-artifact-1",
  "contractName": "Ribon",
  "sourceName": "contracts/base/Ribon.sol",
  "abi": [
    {
      "inputs": [
        {
          "internalType": "address",
          "name": "_donationToken",
          "type": "address"
        },
        {
          "internalType": "address",
          "name": "_governanceCouncil",
          "type": "address"
        },
        {
          "internalType": "address",
          "name": "_integrationCouncil",
          "type": "address"
        },
        {
          "internalType": "address",
          "name": "_nonProfitCouncil",
          "type": "address"
        }
      ],
      "stateMutability": "nonpayable",
      "type": "constructor"
    },
    {
      "anonymous": false,
      "inputs": [
        {
          "indexed": false,
          "internalType": "bytes32",
          "name": "user",
          "type": "bytes32"
        },
        {
          "indexed": false,
          "internalType": "address",
          "name": "integration",
          "type": "address"
        },
        {
          "indexed": false,
          "internalType": "address",
          "name": "nonProfit",
          "type": "address"
        },
        {
          "indexed": false,
          "internalType": "uint256",
          "name": "amount",
          "type": "uint256"
        }
      ],
      "name": "DonationAdded",
      "type": "event"
    },
    {
      "anonymous": false,
      "inputs": [
        {
          "indexed": false,
          "internalType": "uint256",
          "name": "amount",
          "type": "uint256"
        }
      ],
      "name": "DonationPoolBalanceTransfered",
      "type": "event"
    },
    {
      "anonymous": false,
      "inputs": [
        {
          "indexed": false,
          "internalType": "address",
          "name": "integration",
          "type": "address"
        },
        {
          "indexed": false,
          "internalType": "uint256",
          "name": "amount",
          "type": "uint256"
        }
      ],
      "name": "IntegrationBalanceAdded",
      "type": "event"
    },
    {
      "anonymous": false,
      "inputs": [
        {
          "indexed": false,
          "internalType": "address",
          "name": "integration",
          "type": "address"
        },
        {
          "indexed": false,
          "internalType": "uint256",
          "name": "amount",
          "type": "uint256"
        }
      ],
      "name": "IntegrationBalanceRemoved",
      "type": "event"
    },
    {
      "anonymous": false,
      "inputs": [
        {
          "indexed": false,
          "internalType": "address",
          "name": "integrationCouncil",
          "type": "address"
        }
      ],
      "name": "IntegrationCouncilChanged",
      "type": "event"
    },
    {
      "anonymous": false,
      "inputs": [
        {
          "indexed": false,
          "internalType": "address",
          "name": "nonProfit",
          "type": "address"
        }
      ],
      "name": "NonProfitAdded",
      "type": "event"
    },
    {
      "anonymous": false,
      "inputs": [
        {
          "indexed": false,
          "internalType": "address",
          "name": "nonProfitCouncil",
          "type": "address"
        }
      ],
      "name": "NonProfitCouncilChanged",
      "type": "event"
    },
    {
      "anonymous": false,
      "inputs": [
        {
          "indexed": false,
          "internalType": "address",
          "name": "nonProfit",
          "type": "address"
        }
      ],
      "name": "NonProfitRemoved",
      "type": "event"
    },
    {
      "anonymous": false,
      "inputs": [
        {
          "indexed": false,
          "internalType": "address",
          "name": "promoter",
          "type": "address"
        },
        {
          "indexed": false,
          "internalType": "uint256",
          "name": "amount",
          "type": "uint256"
        }
      ],
      "name": "PoolBalanceIncreased",
      "type": "event"
    },
    {
      "inputs": [
        {
          "internalType": "uint256",
          "name": "_amount",
          "type": "uint256"
        }
      ],
      "name": "addDonationPoolBalance",
      "outputs": [],
      "stateMutability": "nonpayable",
      "type": "function"
    },
    {
      "inputs": [
        {
          "internalType": "address",
          "name": "_integration",
          "type": "address"
        },
        {
          "internalType": "uint256",
          "name": "_amount",
          "type": "uint256"
        }
      ],
      "name": "addIntegrationBalance",
      "outputs": [],
      "stateMutability": "nonpayable",
      "type": "function"
    },
    {
      "inputs": [
        {
          "internalType": "address",
          "name": "_nonProfit",
          "type": "address"
        }
      ],
      "name": "addNonProfitToWhitelist",
      "outputs": [],
      "stateMutability": "nonpayable",
      "type": "function"
    },
    {
      "inputs": [
        {
          "internalType": "address",
          "name": "_nonProfit",
          "type": "address"
        },
        {
          "internalType": "bytes32",
          "name": "_user",
          "type": "bytes32"
        },
        {
          "internalType": "uint256",
          "name": "_amount",
          "type": "uint256"
        }
      ],
      "name": "donateThroughIntegration",
      "outputs": [],
      "stateMutability": "nonpayable",
      "type": "function"
    },
    {
      "inputs": [],
      "name": "donationPoolBalance",
      "outputs": [
        {
          "internalType": "uint256",
          "name": "",
          "type": "uint256"
        }
      ],
      "stateMutability": "view",
      "type": "function"
    },
    {
      "inputs": [],
      "name": "donationToken",
      "outputs": [
        {
          "internalType": "contract IERC20",
          "name": "",
          "type": "address"
        }
      ],
      "stateMutability": "view",
      "type": "function"
    },
    {
      "inputs": [],
      "name": "governanceCouncil",
      "outputs": [
        {
          "internalType": "address",
          "name": "",
          "type": "address"
        }
      ],
      "stateMutability": "view",
      "type": "function"
    },
    {
      "inputs": [],
      "name": "integrationCouncil",
      "outputs": [
        {
          "internalType": "address",
          "name": "",
          "type": "address"
        }
      ],
      "stateMutability": "view",
      "type": "function"
    },
    {
      "inputs": [
        {
          "internalType": "address",
          "name": "",
          "type": "address"
        }
      ],
      "name": "integrations",
      "outputs": [
        {
          "internalType": "uint256",
          "name": "",
          "type": "uint256"
        }
      ],
      "stateMutability": "view",
      "type": "function"
    },
    {
      "inputs": [],
      "name": "nonProfitCouncil",
      "outputs": [
        {
          "internalType": "address",
          "name": "",
          "type": "address"
        }
      ],
      "stateMutability": "view",
      "type": "function"
    },
    {
      "inputs": [
        {
          "internalType": "address",
          "name": "",
          "type": "address"
        }
      ],
      "name": "nonProfits",
      "outputs": [
        {
          "internalType": "bool",
          "name": "",
          "type": "bool"
        }
      ],
      "stateMutability": "view",
      "type": "function"
    },
    {
      "inputs": [
        {
          "internalType": "address",
          "name": "_integration",
          "type": "address"
        },
        {
          "internalType": "uint256",
          "name": "_amount",
          "type": "uint256"
        }
      ],
      "name": "removeIntegrationBalance",
      "outputs": [],
      "stateMutability": "nonpayable",
      "type": "function"
    },
    {
      "inputs": [
        {
          "internalType": "address",
          "name": "_nonProfit",
          "type": "address"
        }
      ],
      "name": "removeNonProfitFromWhitelist",
      "outputs": [],
      "stateMutability": "nonpayable",
      "type": "function"
    },
    {
      "inputs": [
        {
          "internalType": "address",
          "name": "_integrationCouncil",
          "type": "address"
        }
      ],
      "name": "setIntegrationCouncil",
      "outputs": [],
      "stateMutability": "nonpayable",
      "type": "function"
    },
    {
      "inputs": [
        {
          "internalType": "address",
          "name": "_nonProfitCouncil",
          "type": "address"
        }
      ],
      "name": "setNonProfitCouncil",
      "outputs": [],
      "stateMutability": "nonpayable",
      "type": "function"
    },
    {
      "inputs": [],
      "name": "transferDonationPoolBalance",
      "outputs": [],
      "stateMutability": "nonpayable",
      "type": "function"
    }
  ],
  "bytecode": "0x60a06040523480156200001157600080fd5b5060405162002102380380620021028339818101604052810190620000379190620001a1565b8373ffffffffffffffffffffffffffffffffffffffff1660808173ffffffffffffffffffffffffffffffffffffffff1681525050826000806101000a81548173ffffffffffffffffffffffffffffffffffffffff021916908373ffffffffffffffffffffffffffffffffffffffff16021790555081600160006101000a81548173ffffffffffffffffffffffffffffffffffffffff021916908373ffffffffffffffffffffffffffffffffffffffff16021790555080600260006101000a81548173ffffffffffffffffffffffffffffffffffffffff021916908373ffffffffffffffffffffffffffffffffffffffff1602179055505050505062000213565b600080fd5b600073ffffffffffffffffffffffffffffffffffffffff82169050919050565b600062000169826200013c565b9050919050565b6200017b816200015c565b81146200018757600080fd5b50565b6000815190506200019b8162000170565b92915050565b60008060008060808587031215620001be57620001bd62000137565b5b6000620001ce878288016200018a565b9450506020620001e1878288016200018a565b9350506040620001f4878288016200018a565b925050606062000207878288016200018a565b91505092959194509250565b608051611ebe62000244600039600081816102ff015281816109f901528181610b290152610fb70152611ebe6000f3fe608060405234801561001057600080fd5b50600436106101005760003560e01c806373da40c711610097578063b79981f611610066578063b79981f614610287578063c281605d14610291578063deb1631f146102ad578063deb63476146102c957610100565b806373da40c7146101ff5780637aea59561461021d57806389d32cd31461024d578063a52c4b5c1461026957610100565b80631adef45d116100d35780631adef45d1461018f5780632e11f00a146101ab57806350237c89146101c757806356dd3a16146101e357610100565b806305e64794146101055780630df7215914610135578063132fdb0b1461015357806317698eee14610171575b600080fd5b61011f600480360381019061011a9190611430565b6102e5565b60405161012c9190611476565b60405180910390f35b61013d6102fd565b60405161014a91906114f0565b60405180910390f35b61015b610321565b604051610168919061151a565b60405180910390f35b610179610347565b604051610186919061151a565b60405180910390f35b6101a960048036038101906101a49190611430565b61036b565b005b6101c560048036038101906101c09190611430565b610496565b005b6101e160048036038101906101dc9190611430565b6105b8565b005b6101fd60048036038101906101f89190611430565b6106da565b005b610207610805565b604051610214919061151a565b60405180910390f35b61023760048036038101906102329190611430565b61082b565b6040516102449190611550565b60405180910390f35b610267600480360381019061026291906115cd565b61084b565b005b610271610a7f565b60405161027e9190611476565b60405180910390f35b61028f610a85565b005b6102ab60048036038101906102a69190611620565b610ba7565b005b6102c760048036038101906102c29190611620565b610da8565b005b6102e360048036038101906102de9190611660565b610f6c565b005b60056020528060005260406000206000915090505481565b7f000000000000000000000000000000000000000000000000000000000000000081565b600160009054906101000a900473ffffffffffffffffffffffffffffffffffffffff1681565b60008054906101000a900473ffffffffffffffffffffffffffffffffffffffff1681565b60008054906101000a900473ffffffffffffffffffffffffffffffffffffffff1673ffffffffffffffffffffffffffffffffffffffff163373ffffffffffffffffffffffffffffffffffffffff16146103f9576040517f08c379a00000000000000000000000000000000000000000000000000000000081526004016103f090611710565b60405180910390fd5b80600260006101000a81548173ffffffffffffffffffffffffffffffffffffffff021916908373ffffffffffffffffffffffffffffffffffffffff1602179055507f025ddf3311f56ecb14f15fc5c828d3f4dce0ab6c9b6a3391ccf46fb953075049600260009054906101000a900473ffffffffffffffffffffffffffffffffffffffff1660405161048b919061151a565b60405180910390a150565b600260009054906101000a900473ffffffffffffffffffffffffffffffffffffffff1673ffffffffffffffffffffffffffffffffffffffff163373ffffffffffffffffffffffffffffffffffffffff1614610526576040517f08c379a000000000000000000000000000000000000000000000000000000000815260040161051d906117a2565b60405180910390fd5b6001600460008373ffffffffffffffffffffffffffffffffffffffff1673ffffffffffffffffffffffffffffffffffffffff16815260200190815260200160002060006101000a81548160ff0219169083151502179055507f48cd054a0d5f7a715ef556531456f832fa4713887fd9619b1994499164bfdb34816040516105ad919061151a565b60405180910390a150565b600260009054906101000a900473ffffffffffffffffffffffffffffffffffffffff1673ffffffffffffffffffffffffffffffffffffffff163373ffffffffffffffffffffffffffffffffffffffff1614610648576040517f08c379a000000000000000000000000000000000000000000000000000000000815260040161063f906117a2565b60405180910390fd5b6000600460008373ffffffffffffffffffffffffffffffffffffffff1673ffffffffffffffffffffffffffffffffffffffff16815260200190815260200160002060006101000a81548160ff0219169083151502179055507ff4c0882c02504b57aef9b59434f24674dca5b42da5bc5a3da8782b4ec472f264816040516106cf919061151a565b60405180910390a150565b60008054906101000a900473ffffffffffffffffffffffffffffffffffffffff1673ffffffffffffffffffffffffffffffffffffffff163373ffffffffffffffffffffffffffffffffffffffff1614610768576040517f08c379a000000000000000000000000000000000000000000000000000000000815260040161075f90611710565b60405180910390fd5b80600160006101000a81548173ffffffffffffffffffffffffffffffffffffffff021916908373ffffffffffffffffffffffffffffffffffffffff1602179055507f080c9357b0cd10dcf418047ae7b7bf2460dfb605c7dbf335015ba38e181197fb600160009054906101000a900473ffffffffffffffffffffffffffffffffffffffff166040516107fa919061151a565b60405180910390a150565b600260009054906101000a900473ffffffffffffffffffffffffffffffffffffffff1681565b60046020528060005260406000206000915054906101000a900460ff1681565b600460008473ffffffffffffffffffffffffffffffffffffffff1673ffffffffffffffffffffffffffffffffffffffff16815260200190815260200160002060009054906101000a900460ff166108d7576040517f08c379a00000000000000000000000000000000000000000000000000000000081526004016108ce9061180e565b60405180910390fd5b80600560003373ffffffffffffffffffffffffffffffffffffffff1673ffffffffffffffffffffffffffffffffffffffff168152602001908152602001600020541015610959576040517f08c379a00000000000000000000000000000000000000000000000000000000081526004016109509061187a565b60405180910390fd5b6000811161099c576040517f08c379a0000000000000000000000000000000000000000000000000000000008152600401610993906118e6565b60405180910390fd5b80600560003373ffffffffffffffffffffffffffffffffffffffff1673ffffffffffffffffffffffffffffffffffffffff16815260200190815260200160002060008282546109eb9190611935565b92505081905550610a3d83827f000000000000000000000000000000000000000000000000000000000000000073ffffffffffffffffffffffffffffffffffffffff166110519092919063ffffffff16565b7f03648ca2afaaff870f2349ab3ff3431e0643787a1998d322afd18ed2aa9a863c82338584604051610a729493929190611978565b60405180910390a1505050565b60035481565b60008054906101000a900473ffffffffffffffffffffffffffffffffffffffff1673ffffffffffffffffffffffffffffffffffffffff163373ffffffffffffffffffffffffffffffffffffffff1614610b13576040517f08c379a0000000000000000000000000000000000000000000000000000000008152600401610b0a90611710565b60405180910390fd5b600060035490506000600381905550610b6d33827f000000000000000000000000000000000000000000000000000000000000000073ffffffffffffffffffffffffffffffffffffffff166110519092919063ffffffff16565b7fbcfd1c9b0bcf4d56f7ed6fe9dfa5b628720f7943649e65f6e05051e2e69fb47581604051610b9c9190611476565b60405180910390a150565b600160009054906101000a900473ffffffffffffffffffffffffffffffffffffffff1673ffffffffffffffffffffffffffffffffffffffff163373ffffffffffffffffffffffffffffffffffffffff1614610c37576040517f08c379a0000000000000000000000000000000000000000000000000000000008152600401610c2e90611a2f565b60405180910390fd5b80600560008473ffffffffffffffffffffffffffffffffffffffff1673ffffffffffffffffffffffffffffffffffffffff168152602001908152602001600020541015610cb9576040517f08c379a0000000000000000000000000000000000000000000000000000000008152600401610cb090611ac1565b60405180910390fd5b60008111610cfc576040517f08c379a0000000000000000000000000000000000000000000000000000000008152600401610cf3906118e6565b60405180910390fd5b8060036000828254610d0e9190611ae1565b9250508190555080600560008473ffffffffffffffffffffffffffffffffffffffff1673ffffffffffffffffffffffffffffffffffffffff1681526020019081526020016000206000828254610d649190611935565b925050819055507f9bf19fcaed3216b249d549bbd10270c5ccb0e8af4b6b33387f21aa9969e56aac8282604051610d9c929190611b37565b60405180910390a15050565b600160009054906101000a900473ffffffffffffffffffffffffffffffffffffffff1673ffffffffffffffffffffffffffffffffffffffff163373ffffffffffffffffffffffffffffffffffffffff1614610e38576040517f08c379a0000000000000000000000000000000000000000000000000000000008152600401610e2f90611a2f565b60405180910390fd5b806003541015610e7d576040517f08c379a0000000000000000000000000000000000000000000000000000000008152600401610e7490611ac1565b60405180910390fd5b60008111610ec0576040517f08c379a0000000000000000000000000000000000000000000000000000000008152600401610eb7906118e6565b60405180910390fd5b8060036000828254610ed29190611935565b9250508190555080600560008473ffffffffffffffffffffffffffffffffffffffff1673ffffffffffffffffffffffffffffffffffffffff1681526020019081526020016000206000828254610f289190611ae1565b925050819055507f777ef5eaabef3886e23f4fb05ad8db9f4b8d00a08fddf565c4fee2e02fb9fc618282604051610f60929190611b37565b60405180910390a15050565b60008111610faf576040517f08c379a0000000000000000000000000000000000000000000000000000000008152600401610fa6906118e6565b60405180910390fd5b610ffc3330837f000000000000000000000000000000000000000000000000000000000000000073ffffffffffffffffffffffffffffffffffffffff166110d7909392919063ffffffff16565b806003600082825461100e9190611ae1565b925050819055507fd9795098f5c916aaded6e20f0dbcc3e7a312fcf25e5404964b94f203b20e445c3382604051611046929190611b37565b60405180910390a150565b6110d28363a9059cbb60e01b8484604051602401611070929190611b37565b604051602081830303815290604052907bffffffffffffffffffffffffffffffffffffffffffffffffffffffff19166020820180517bffffffffffffffffffffffffffffffffffffffffffffffffffffffff8381831617835250505050611160565b505050565b61115a846323b872dd60e01b8585856040516024016110f893929190611b60565b604051602081830303815290604052907bffffffffffffffffffffffffffffffffffffffffffffffffffffffff19166020820180517bffffffffffffffffffffffffffffffffffffffffffffffffffffffff8381831617835250505050611160565b50505050565b60006111c2826040518060400160405280602081526020017f5361666545524332303a206c6f772d6c6576656c2063616c6c206661696c65648152508573ffffffffffffffffffffffffffffffffffffffff166112279092919063ffffffff16565b905060008151111561122257808060200190518101906111e29190611bc3565b611221576040517f08c379a000000000000000000000000000000000000000000000000000000000815260040161121890611c62565b60405180910390fd5b5b505050565b6060611236848460008561123f565b90509392505050565b606082471015611284576040517f08c379a000000000000000000000000000000000000000000000000000000000815260040161127b90611cf4565b60405180910390fd5b61128d85611353565b6112cc576040517f08c379a00000000000000000000000000000000000000000000000000000000081526004016112c390611d60565b60405180910390fd5b6000808673ffffffffffffffffffffffffffffffffffffffff1685876040516112f59190611dfa565b60006040518083038185875af1925050503d8060008114611332576040519150601f19603f3d011682016040523d82523d6000602084013e611337565b606091505b5091509150611347828286611366565b92505050949350505050565b600080823b905060008111915050919050565b60608315611376578290506113c6565b6000835111156113895782518084602001fd5b816040517f08c379a00000000000000000000000000000000000000000000000000000000081526004016113bd9190611e66565b60405180910390fd5b9392505050565b600080fd5b600073ffffffffffffffffffffffffffffffffffffffff82169050919050565b60006113fd826113d2565b9050919050565b61140d816113f2565b811461141857600080fd5b50565b60008135905061142a81611404565b92915050565b600060208284031215611446576114456113cd565b5b60006114548482850161141b565b91505092915050565b6000819050919050565b6114708161145d565b82525050565b600060208201905061148b6000830184611467565b92915050565b6000819050919050565b60006114b66114b16114ac846113d2565b611491565b6113d2565b9050919050565b60006114c88261149b565b9050919050565b60006114da826114bd565b9050919050565b6114ea816114cf565b82525050565b600060208201905061150560008301846114e1565b92915050565b611514816113f2565b82525050565b600060208201905061152f600083018461150b565b92915050565b60008115159050919050565b61154a81611535565b82525050565b60006020820190506115656000830184611541565b92915050565b6000819050919050565b61157e8161156b565b811461158957600080fd5b50565b60008135905061159b81611575565b92915050565b6115aa8161145d565b81146115b557600080fd5b50565b6000813590506115c7816115a1565b92915050565b6000806000606084860312156115e6576115e56113cd565b5b60006115f48682870161141b565b93505060206116058682870161158c565b9250506040611616868287016115b8565b9150509250925092565b60008060408385031215611637576116366113cd565b5b60006116458582860161141b565b9250506020611656858286016115b8565b9150509250929050565b600060208284031215611676576116756113cd565b5b6000611684848285016115b8565b91505092915050565b600082825260208201905092915050565b7f596f7520617265206e6f742074686520676f7665726e616e636520636f756e6360008201527f696c000000000000000000000000000000000000000000000000000000000000602082015250565b60006116fa60228361168d565b91506117058261169e565b604082019050919050565b60006020820190508181036000830152611729816116ed565b9050919050565b7f596f7520617265206e6f7420746865206e6f6e70726f66697420636f756e636960008201527f6c00000000000000000000000000000000000000000000000000000000000000602082015250565b600061178c60218361168d565b915061179782611730565b604082019050919050565b600060208201905081810360008301526117bb8161177f565b9050919050565b7f4e6f7420612077686974656c6973746564206e6f6e70726f6669740000000000600082015250565b60006117f8601b8361168d565b9150611803826117c2565b602082019050919050565b60006020820190508181036000830152611827816117eb565b9050919050565b7f42616c616e6365206d7573742067726561746572207468616e20616d6f756e74600082015250565b600061186460208361168d565b915061186f8261182e565b602082019050919050565b6000602082019050818103600083015261189381611857565b9050919050565b7f416d6f756e74206d7573742062652067726561746572207468616e2030000000600082015250565b60006118d0601d8361168d565b91506118db8261189a565b602082019050919050565b600060208201905081810360008301526118ff816118c3565b9050919050565b7f4e487b7100000000000000000000000000000000000000000000000000000000600052601160045260246000fd5b60006119408261145d565b915061194b8361145d565b92508282101561195e5761195d611906565b5b828203905092915050565b6119728161156b565b82525050565b600060808201905061198d6000830187611969565b61199a602083018661150b565b6119a7604083018561150b565b6119b46060830184611467565b95945050505050565b7f596f7520617265206e6f742074686520696e746567726174696f6e20636f756e60008201527f63696c0000000000000000000000000000000000000000000000000000000000602082015250565b6000611a1960238361168d565b9150611a24826119bd565b604082019050919050565b60006020820190508181036000830152611a4881611a0c565b9050919050565b7f42616c616e6365206d7573742062652067726561746572207468616e20616d6f60008201527f756e740000000000000000000000000000000000000000000000000000000000602082015250565b6000611aab60238361168d565b9150611ab682611a4f565b604082019050919050565b60006020820190508181036000830152611ada81611a9e565b9050919050565b6000611aec8261145d565b9150611af78361145d565b9250827fffffffffffffffffffffffffffffffffffffffffffffffffffffffffffffffff03821115611b2c57611b2b611906565b5b828201905092915050565b6000604082019050611b4c600083018561150b565b611b596020830184611467565b9392505050565b6000606082019050611b75600083018661150b565b611b82602083018561150b565b611b8f6040830184611467565b949350505050565b611ba081611535565b8114611bab57600080fd5b50565b600081519050611bbd81611b97565b92915050565b600060208284031215611bd957611bd86113cd565b5b6000611be784828501611bae565b91505092915050565b7f5361666545524332303a204552433230206f7065726174696f6e20646964206e60008201527f6f74207375636365656400000000000000000000000000000000000000000000602082015250565b6000611c4c602a8361168d565b9150611c5782611bf0565b604082019050919050565b60006020820190508181036000830152611c7b81611c3f565b9050919050565b7f416464726573733a20696e73756666696369656e742062616c616e636520666f60008201527f722063616c6c0000000000000000000000000000000000000000000000000000602082015250565b6000611cde60268361168d565b9150611ce982611c82565b604082019050919050565b60006020820190508181036000830152611d0d81611cd1565b9050919050565b7f416464726573733a2063616c6c20746f206e6f6e2d636f6e7472616374000000600082015250565b6000611d4a601d8361168d565b9150611d5582611d14565b602082019050919050565b60006020820190508181036000830152611d7981611d3d565b9050919050565b600081519050919050565b600081905092915050565b60005b83811015611db4578082015181840152602081019050611d99565b83811115611dc3576000848401525b50505050565b6000611dd482611d80565b611dde8185611d8b565b9350611dee818560208601611d96565b80840191505092915050565b6000611e068284611dc9565b915081905092915050565b600081519050919050565b6000601f19601f8301169050919050565b6000611e3882611e11565b611e42818561168d565b9350611e52818560208601611d96565b611e5b81611e1c565b840191505092915050565b60006020820190508181036000830152611e808184611e2d565b90509291505056fea2646970667358221220f94f4148f7953be2c981e940291960c98c4534f5dbbdb513be2bb284b2b12a9e64736f6c634300080e0033",
  "linkReferences": {},
  "deployedLinkReferences": {}
}