{
  "_format": "hh-sol-artifact-1",
  "contractName": "Manager",
  "sourceName": "contracts/base/Manager.sol",
  "abi": [
    {
      "inputs": [
        {
          "internalType": "address",
          "name": "_governanceCouncil",
          "type": "address"
        },
        {
          "internalType": "address",
          "name": "_integrationCouncil",
          "type": "address"
        },
        {
          "internalType": "address",
          "name": "_nonProfitCouncil",
          "type": "address"
        },
        {
          "internalType": "address",
          "name": "_feeWallet",
          "type": "address"
        },
        {
          "internalType": "uint256",
          "name": "_poolIncreaseFee",
          "type": "uint256"
        },
        {
          "internalType": "uint256",
          "name": "_directlyContributionFee",
          "type": "uint256"
        }
      ],
      "stateMutability": "nonpayable",
      "type": "constructor"
    },
    {
      "anonymous": false,
      "inputs": [
        {
          "indexed": false,
          "internalType": "uint256",
          "name": "directlyContributionFee",
          "type": "uint256"
        }
      ],
      "name": "DirectlyContributionFeeChanged",
      "type": "event"
    },
    {
      "anonymous": false,
      "inputs": [
        {
          "indexed": false,
          "internalType": "address",
          "name": "pool",
          "type": "address"
        },
        {
          "indexed": false,
          "internalType": "address",
          "name": "nonProfit",
          "type": "address"
        },
        {
          "indexed": false,
          "internalType": "address",
          "name": "integrationController",
          "type": "address"
        },
        {
          "indexed": false,
          "internalType": "string",
          "name": "donationBatch",
          "type": "string"
        },
        {
          "indexed": false,
          "internalType": "uint256",
          "name": "amount",
          "type": "uint256"
        }
      ],
      "name": "DonationAdded",
      "type": "event"
    },
    {
      "anonymous": false,
      "inputs": [
        {
          "indexed": false,
          "internalType": "address",
          "name": "governanceCouncil",
          "type": "address"
        }
      ],
      "name": "GovernanceCouncilChanged",
      "type": "event"
    },
    {
      "anonymous": false,
      "inputs": [
        {
          "indexed": false,
          "internalType": "address",
          "name": "integrationController",
          "type": "address"
        },
        {
          "indexed": false,
          "internalType": "uint256",
          "name": "amount",
          "type": "uint256"
        }
      ],
      "name": "IntegrationControllerBalanceAdded",
      "type": "event"
    },
    {
      "anonymous": false,
      "inputs": [
        {
          "indexed": false,
          "internalType": "address",
          "name": "integrationController",
          "type": "address"
        },
        {
          "indexed": false,
          "internalType": "uint256",
          "name": "amount",
          "type": "uint256"
        }
      ],
      "name": "IntegrationControllerBalanceRemoved",
      "type": "event"
    },
    {
      "anonymous": false,
      "inputs": [
        {
          "indexed": false,
          "internalType": "address",
          "name": "integrationCouncil",
          "type": "address"
        }
      ],
      "name": "IntegrationCouncilChanged",
      "type": "event"
    },
    {
      "anonymous": false,
      "inputs": [
        {
          "indexed": false,
          "internalType": "address",
          "name": "pool",
          "type": "address"
        },
        {
          "indexed": false,
          "internalType": "address",
          "name": "nonProfit",
          "type": "address"
        }
      ],
      "name": "NonProfitAdded",
      "type": "event"
    },
    {
      "anonymous": false,
      "inputs": [
        {
          "indexed": false,
          "internalType": "address",
          "name": "nonProfitCouncil",
          "type": "address"
        }
      ],
      "name": "NonProfitCouncilChanged",
      "type": "event"
    },
    {
      "anonymous": false,
      "inputs": [
        {
          "indexed": false,
          "internalType": "address",
          "name": "pool",
          "type": "address"
        },
        {
          "indexed": false,
          "internalType": "address",
          "name": "nonProfit",
          "type": "address"
        }
      ],
      "name": "NonProfitRemoved",
      "type": "event"
    },
    {
      "anonymous": false,
      "inputs": [
        {
          "indexed": false,
          "internalType": "address",
          "name": "promoter",
          "type": "address"
        },
        {
          "indexed": false,
          "internalType": "address",
          "name": "pool",
          "type": "address"
        },
        {
          "indexed": false,
          "internalType": "uint256",
          "name": "amount",
          "type": "uint256"
        }
      ],
      "name": "PoolBalanceIncreased",
      "type": "event"
    },
    {
      "anonymous": false,
      "inputs": [
        {
          "indexed": false,
          "internalType": "address",
          "name": "pool",
          "type": "address"
        },
        {
          "indexed": false,
          "internalType": "address",
          "name": "wallet",
          "type": "address"
        }
      ],
      "name": "PoolBalanceTransfered",
      "type": "event"
    },
    {
      "anonymous": false,
      "inputs": [
        {
          "indexed": false,
          "internalType": "address",
          "name": "pool",
          "type": "address"
        },
        {
          "indexed": false,
          "internalType": "address",
          "name": "token",
          "type": "address"
        }
      ],
      "name": "PoolCreated",
      "type": "event"
    },
    {
      "anonymous": false,
      "inputs": [
        {
          "indexed": false,
          "internalType": "uint256",
          "name": "poolIncreaseFee",
          "type": "uint256"
        }
      ],
      "name": "PoolIncreaseFeeChanged",
      "type": "event"
    },
    {
      "inputs": [
        {
          "internalType": "address",
          "name": "_integrationController",
          "type": "address"
        },
        {
          "internalType": "uint256",
          "name": "_amount",
          "type": "uint256"
        }
      ],
      "name": "addIntegrationControllerBalance",
      "outputs": [],
      "stateMutability": "nonpayable",
      "type": "function"
    },
    {
      "inputs": [
        {
          "internalType": "address",
          "name": "_pool",
          "type": "address"
        },
        {
          "internalType": "address",
          "name": "_nonProfit",
          "type": "address"
        }
      ],
      "name": "addNonProfitToWhitelist",
      "outputs": [],
      "stateMutability": "nonpayable",
      "type": "function"
    },
    {
      "inputs": [
        {
          "internalType": "address",
          "name": "_pool",
          "type": "address"
        },
        {
          "internalType": "uint256",
          "name": "_amount",
          "type": "uint256"
        },
        {
          "internalType": "bool",
          "name": "feeable",
          "type": "bool"
        }
      ],
      "name": "addPoolBalance",
      "outputs": [],
      "stateMutability": "nonpayable",
      "type": "function"
    },
    {
      "inputs": [
        {
          "internalType": "address",
          "name": "_pool",
          "type": "address"
        },
        {
          "internalType": "address",
          "name": "_nonProfit",
          "type": "address"
        },
        {
          "internalType": "uint256",
          "name": "_amount",
          "type": "uint256"
        }
      ],
      "name": "contributeToNonProfit",
      "outputs": [],
      "stateMutability": "nonpayable",
      "type": "function"
    },
    {
      "inputs": [
        {
          "internalType": "address",
          "name": "_token",
          "type": "address"
        }
      ],
      "name": "createPool",
      "outputs": [
        {
          "internalType": "address",
          "name": "",
          "type": "address"
        }
      ],
      "stateMutability": "nonpayable",
      "type": "function"
    },
    {
      "inputs": [],
      "name": "directlyContributionFee",
      "outputs": [
        {
          "internalType": "uint256",
          "name": "",
          "type": "uint256"
        }
      ],
      "stateMutability": "view",
      "type": "function"
    },
    {
      "inputs": [
        {
          "internalType": "address",
          "name": "_pool",
          "type": "address"
        },
        {
          "internalType": "address",
          "name": "_nonProfit",
          "type": "address"
        },
        {
          "internalType": "address",
          "name": "_integrationController",
          "type": "address"
        },
        {
          "internalType": "string",
          "name": "_donation_batch",
          "type": "string"
        },
        {
          "internalType": "uint256",
          "name": "_amount",
          "type": "uint256"
        }
      ],
      "name": "donateThroughIntegration",
      "outputs": [],
      "stateMutability": "nonpayable",
      "type": "function"
    },
    {
      "inputs": [
        {
          "internalType": "address",
          "name": "",
          "type": "address"
        }
      ],
      "name": "existPool",
      "outputs": [
        {
          "internalType": "bool",
          "name": "",
          "type": "bool"
        }
      ],
      "stateMutability": "view",
      "type": "function"
    },
    {
      "inputs": [],
      "name": "feeWallet",
      "outputs": [
        {
          "internalType": "address",
          "name": "",
          "type": "address"
        }
      ],
      "stateMutability": "view",
      "type": "function"
    },
    {
      "inputs": [
        {
          "internalType": "uint256",
          "name": "_index",
          "type": "uint256"
        },
        {
          "internalType": "uint256",
          "name": "_length",
          "type": "uint256"
        }
      ],
      "name": "fetchPools",
      "outputs": [
        {
          "internalType": "address[]",
          "name": "_pools",
          "type": "address[]"
        },
        {
          "internalType": "uint256",
          "name": "_newIndex",
          "type": "uint256"
        }
      ],
      "stateMutability": "view",
      "type": "function"
    },
    {
      "inputs": [],
      "name": "governanceCouncil",
      "outputs": [
        {
          "internalType": "address",
          "name": "",
          "type": "address"
        }
      ],
      "stateMutability": "view",
      "type": "function"
    },
    {
      "inputs": [
        {
          "internalType": "address",
          "name": "",
          "type": "address"
        }
      ],
      "name": "integrationControllers",
      "outputs": [
        {
          "internalType": "uint256",
          "name": "",
          "type": "uint256"
        }
      ],
      "stateMutability": "view",
      "type": "function"
    },
    {
      "inputs": [],
      "name": "integrationCouncil",
      "outputs": [
        {
          "internalType": "address",
          "name": "",
          "type": "address"
        }
      ],
      "stateMutability": "view",
      "type": "function"
    },
    {
      "inputs": [],
      "name": "nonProfitCouncil",
      "outputs": [
        {
          "internalType": "address",
          "name": "",
          "type": "address"
        }
      ],
      "stateMutability": "view",
      "type": "function"
    },
    {
      "inputs": [],
      "name": "poolIncreaseFee",
      "outputs": [
        {
          "internalType": "uint256",
          "name": "",
          "type": "uint256"
        }
      ],
      "stateMutability": "view",
      "type": "function"
    },
    {
      "inputs": [
        {
          "internalType": "uint256",
          "name": "",
          "type": "uint256"
        }
      ],
      "name": "pools",
      "outputs": [
        {
          "internalType": "address",
          "name": "",
          "type": "address"
        }
      ],
      "stateMutability": "view",
      "type": "function"
    },
    {
      "inputs": [
        {
          "internalType": "address",
          "name": "_integrationController",
          "type": "address"
        },
        {
          "internalType": "uint256",
          "name": "_amount",
          "type": "uint256"
        }
      ],
      "name": "removeIntegrationControllerBalance",
      "outputs": [],
      "stateMutability": "nonpayable",
      "type": "function"
    },
    {
      "inputs": [
        {
          "internalType": "address",
          "name": "_pool",
          "type": "address"
        },
        {
          "internalType": "address",
          "name": "_nonProfit",
          "type": "address"
        }
      ],
      "name": "removeNonProfitFromWhitelist",
      "outputs": [],
      "stateMutability": "nonpayable",
      "type": "function"
    },
    {
      "inputs": [
        {
          "internalType": "uint256",
          "name": "_directlyContributionFee",
          "type": "uint256"
        }
      ],
      "name": "setDirectlyContributionFee",
      "outputs": [],
      "stateMutability": "nonpayable",
      "type": "function"
    },
    {
      "inputs": [
        {
          "internalType": "address",
          "name": "_governanceCouncil",
          "type": "address"
        }
      ],
      "name": "setGovernanceCouncil",
      "outputs": [],
      "stateMutability": "nonpayable",
      "type": "function"
    },
    {
      "inputs": [
        {
          "internalType": "address",
          "name": "_integrationCouncil",
          "type": "address"
        }
      ],
      "name": "setIntegrationCouncil",
      "outputs": [],
      "stateMutability": "nonpayable",
      "type": "function"
    },
    {
      "inputs": [
        {
          "internalType": "address",
          "name": "_nonProfitCouncil",
          "type": "address"
        }
      ],
      "name": "setNonProfitCouncil",
      "outputs": [],
      "stateMutability": "nonpayable",
      "type": "function"
    },
    {
      "inputs": [
        {
          "internalType": "uint256",
          "name": "_poolIncreaseFee",
          "type": "uint256"
        }
      ],
      "name": "setPoolIncreaseFee",
      "outputs": [],
      "stateMutability": "nonpayable",
      "type": "function"
    },
    {
      "inputs": [
        {
          "internalType": "address",
          "name": "_pool",
          "type": "address"
        },
        {
          "internalType": "address",
          "name": "_wallet",
          "type": "address"
        }
      ],
      "name": "transferPoolBalance",
      "outputs": [],
      "stateMutability": "nonpayable",
      "type": "function"
    }
  ],
  "bytecode": "0x60806040523480156200001157600080fd5b5060405162004e2038038062004e20833981810160405281019062000037919062000285565b603282106200007d576040517f08c379a0000000000000000000000000000000000000000000000000000000008152600401620000749062000382565b60405180910390fd5b60328110620000c3576040517f08c379a0000000000000000000000000000000000000000000000000000000008152600401620000ba906200041a565b60405180910390fd5b85600260006101000a81548173ffffffffffffffffffffffffffffffffffffffff021916908373ffffffffffffffffffffffffffffffffffffffff160217905550846000806101000a81548173ffffffffffffffffffffffffffffffffffffffff021916908373ffffffffffffffffffffffffffffffffffffffff16021790555083600160006101000a81548173ffffffffffffffffffffffffffffffffffffffff021916908373ffffffffffffffffffffffffffffffffffffffff16021790555082600360006101000a81548173ffffffffffffffffffffffffffffffffffffffff021916908373ffffffffffffffffffffffffffffffffffffffff16021790555081600481905550806005819055505050505050506200043c565b600080fd5b600073ffffffffffffffffffffffffffffffffffffffff82169050919050565b60006200021282620001e5565b9050919050565b620002248162000205565b81146200023057600080fd5b50565b600081519050620002448162000219565b92915050565b6000819050919050565b6200025f816200024a565b81146200026b57600080fd5b50565b6000815190506200027f8162000254565b92915050565b60008060008060008060c08789031215620002a557620002a4620001e0565b5b6000620002b589828a0162000233565b9650506020620002c889828a0162000233565b9550506040620002db89828a0162000233565b9450506060620002ee89828a0162000233565b93505060806200030189828a016200026e565b92505060a06200031489828a016200026e565b9150509295509295509295565b600082825260208201905092915050565b7f506f6f6c496e63726561736546656520697320746f6f20686967680000000000600082015250565b60006200036a601b8362000321565b9150620003778262000332565b602082019050919050565b600060208201905081810360008301526200039d816200035b565b9050919050565b7f4469726563746c79436f6e747269627574696f6e46656520697320746f6f206860008201527f6967680000000000000000000000000000000000000000000000000000000000602082015250565b60006200040260238362000321565b91506200040f82620003a4565b604082019050919050565b600060208201905081810360008301526200043581620003f3565b9050919050565b6149d4806200044c6000396000f3fe60806040523480156200001157600080fd5b5060043610620001785760003560e01c806377fab22411620000d5578063d4e4a3191162000087578063d4e4a3191462000420578063d69d6f511462000456578063dc69cf8e1462000476578063eba97eaa1462000496578063f25f4b5614620004b6578063f868858114620004d85762000178565b806377fab224146200031e5780639049f9d21462000354578063ac4afa38146200038a578063b1cca73314620003c0578063b6a7685814620003e0578063cb688b7c14620004005762000178565b8063526fde55116200012f578063526fde55146200025857806354578ae2146200027857806356dd3a1614620002985780636344a05214620002b85780636dcc96ae14620002da57806373da40c714620002fc5762000178565b8063132fdb0b146200017d57806317698eee146200019f5780631adef45d14620001c157806334aca83e14620001e15780633bdea6a814620002185780634fb0a1951462000238575b600080fd5b62000187620004f8565b604051620001969190620022ae565b60405180910390f35b620001a96200051c565b604051620001b89190620022ae565b60405180910390f35b620001df6004803603810190620001d9919062002310565b62000542565b005b620001ff6004803603810190620001f991906200237d565b62000674565b6040516200020f929190620024a3565b60405180910390f35b620002366004803603810190620002309190620024d7565b620007d4565b005b6200025660048036038101906200025091906200251e565b62000942565b005b620002766004803603810190620002709190620024d7565b62000a60565b005b62000296600480360381019062000290919062002550565b62000c53565b005b620002b66004803603810190620002b0919062002310565b62000d9a565b005b620002c262000ec9565b604051620002d1919062002597565b60405180910390f35b620002e462000ecf565b604051620002f3919062002597565b60405180910390f35b6200030662000ed5565b604051620003159190620022ae565b60405180910390f35b6200033c600480360381019062000336919062002310565b62000efb565b6040516200034b919062002597565b60405180910390f35b6200037260048036038101906200036c919062002310565b62000f13565b604051620003819190620022ae565b60405180910390f35b620003a86004803603810190620003a291906200251e565b620010e6565b604051620003b79190620022ae565b60405180910390f35b620003de6004803603810190620003d8919062002716565b62001126565b005b620003fe6004803603810190620003f89190620027bd565b6200130a565b005b6200041e600480360381019062000418919062002550565b620016bd565b005b6200043e600480360381019062000438919062002310565b62001804565b6040516200044d919062002836565b60405180910390f35b6200047460048036038101906200046e919062002884565b62001824565b005b6200049460048036038101906200048e91906200251e565b62001b5d565b005b620004b46004803603810190620004ae919062002310565b62001c7b565b005b620004c062001dad565b604051620004cf9190620022ae565b60405180910390f35b620004f66004803603810190620004f0919062002550565b62001dd3565b005b60008054906101000a900473ffffffffffffffffffffffffffffffffffffffff1681565b600260009054906101000a900473ffffffffffffffffffffffffffffffffffffffff1681565b600260009054906101000a900473ffffffffffffffffffffffffffffffffffffffff1673ffffffffffffffffffffffffffffffffffffffff163373ffffffffffffffffffffffffffffffffffffffff1614620005d5576040517f08c379a0000000000000000000000000000000000000000000000000000000008152600401620005cc9062002967565b60405180910390fd5b80600160006101000a81548173ffffffffffffffffffffffffffffffffffffffff021916908373ffffffffffffffffffffffffffffffffffffffff1602179055507f025ddf3311f56ecb14f15fc5c828d3f4dce0ab6c9b6a3391ccf46fb953075049600160009054906101000a900473ffffffffffffffffffffffffffffffffffffffff16604051620006699190620022ae565b60405180910390a150565b60606000836007805490506200068b9190620029b8565b831115620006a95783600780549050620006a69190620029b8565b92505b8267ffffffffffffffff811115620006c657620006c5620025cf565b5b604051908082528060200260200182016040528015620006f55781602001602082028036833780820191505090505b50915060005b83811015620007b95760078186620007149190620029f3565b8154811062000728576200072762002a50565b5b9060005260206000200160009054906101000a900473ffffffffffffffffffffffffffffffffffffffff1683828151811062000769576200076862002a50565b5b602002602001019073ffffffffffffffffffffffffffffffffffffffff16908173ffffffffffffffffffffffffffffffffffffffff16815250508080620007b09062002a7f565b915050620006fb565b50818385620007c99190620029f3565b915091509250929050565b60008054906101000a900473ffffffffffffffffffffffffffffffffffffffff1673ffffffffffffffffffffffffffffffffffffffff163373ffffffffffffffffffffffffffffffffffffffff161462000865576040517f08c379a00000000000000000000000000000000000000000000000000000000081526004016200085c9062002b42565b60405180910390fd5b60008111620008ab576040517f08c379a0000000000000000000000000000000000000000000000000000000008152600401620008a29062002bb4565b60405180910390fd5b80600660008473ffffffffffffffffffffffffffffffffffffffff1673ffffffffffffffffffffffffffffffffffffffff1681526020019081526020016000206000828254620008fc9190620029f3565b925050819055507f58709b8515dcae40408a9c8008734df4b13fc31937b77050082d30d53fbe03b282826040516200093692919062002bd6565b60405180910390a15050565b600260009054906101000a900473ffffffffffffffffffffffffffffffffffffffff1673ffffffffffffffffffffffffffffffffffffffff163373ffffffffffffffffffffffffffffffffffffffff1614620009d5576040517f08c379a0000000000000000000000000000000000000000000000000000000008152600401620009cc9062002967565b60405180910390fd5b6032811062000a1b576040517f08c379a000000000000000000000000000000000000000000000000000000000815260040162000a129062002c53565b60405180910390fd5b806005819055507fd441732d4e094ee388d74d91919272ee3649dcb536bcb7a36a27be2dd2e41d3e60055460405162000a55919062002597565b60405180910390a150565b60008054906101000a900473ffffffffffffffffffffffffffffffffffffffff1673ffffffffffffffffffffffffffffffffffffffff163373ffffffffffffffffffffffffffffffffffffffff161462000af1576040517f08c379a000000000000000000000000000000000000000000000000000000000815260040162000ae89062002b42565b60405180910390fd5b80600660008473ffffffffffffffffffffffffffffffffffffffff1673ffffffffffffffffffffffffffffffffffffffff16815260200190815260200160002054101562000b76576040517f08c379a000000000000000000000000000000000000000000000000000000000815260040162000b6d9062002ceb565b60405180910390fd5b6000811162000bbc576040517f08c379a000000000000000000000000000000000000000000000000000000000815260040162000bb39062002bb4565b60405180910390fd5b80600660008473ffffffffffffffffffffffffffffffffffffffff1673ffffffffffffffffffffffffffffffffffffffff168152602001908152602001600020600082825462000c0d9190620029b8565b925050819055507fe1a62b2da5d1340000ff88ac571d610055ae774cbfe2b4514c2d56b9cc41af04828260405162000c4792919062002bd6565b60405180910390a15050565b600260009054906101000a900473ffffffffffffffffffffffffffffffffffffffff1673ffffffffffffffffffffffffffffffffffffffff163373ffffffffffffffffffffffffffffffffffffffff161462000ce6576040517f08c379a000000000000000000000000000000000000000000000000000000000815260040162000cdd9062002967565b60405180910390fd5b60008290508073ffffffffffffffffffffffffffffffffffffffff166363b6b31f836040518263ffffffff1660e01b815260040162000d269190620022ae565b600060405180830381600087803b15801562000d4157600080fd5b505af115801562000d56573d6000803e3d6000fd5b505050507fdb72e41f6fd4c6fd7a5be5ef58e126fea8e3ae75a3d6e32e4f8517449ad23c72838360405162000d8d92919062002d0d565b60405180910390a1505050565b600260009054906101000a900473ffffffffffffffffffffffffffffffffffffffff1673ffffffffffffffffffffffffffffffffffffffff163373ffffffffffffffffffffffffffffffffffffffff161462000e2d576040517f08c379a000000000000000000000000000000000000000000000000000000000815260040162000e249062002967565b60405180910390fd5b806000806101000a81548173ffffffffffffffffffffffffffffffffffffffff021916908373ffffffffffffffffffffffffffffffffffffffff1602179055507f080c9357b0cd10dcf418047ae7b7bf2460dfb605c7dbf335015ba38e181197fb60008054906101000a900473ffffffffffffffffffffffffffffffffffffffff1660405162000ebe9190620022ae565b60405180910390a150565b60055481565b60045481565b600160009054906101000a900473ffffffffffffffffffffffffffffffffffffffff1681565b60066020528060005260406000206000915090505481565b6000600160009054906101000a900473ffffffffffffffffffffffffffffffffffffffff1673ffffffffffffffffffffffffffffffffffffffff163373ffffffffffffffffffffffffffffffffffffffff161462000fa8576040517f08c379a000000000000000000000000000000000000000000000000000000000815260040162000f9f9062002db0565b60405180910390fd5b6000823060405162000fba906200225b565b62000fc792919062002d0d565b604051809103906000f08015801562000fe4573d6000803e3d6000fd5b5090506007819080600181540180825580915050600190039060005260206000200160009091909190916101000a81548173ffffffffffffffffffffffffffffffffffffffff021916908373ffffffffffffffffffffffffffffffffffffffff1602179055506001600860008373ffffffffffffffffffffffffffffffffffffffff1673ffffffffffffffffffffffffffffffffffffffff16815260200190815260200160002060006101000a81548160ff0219169083151502179055507f4f2ce4e40f623ca765fc0167a25cb7842ceaafb8d82d3dec26ca0d0e0d2d48968184604051620010d592919062002d0d565b60405180910390a180915050919050565b60078181548110620010f757600080fd5b906000526020600020016000915054906101000a900473ffffffffffffffffffffffffffffffffffffffff1681565b80600660003373ffffffffffffffffffffffffffffffffffffffff1673ffffffffffffffffffffffffffffffffffffffff168152602001908152602001600020541015620011ab576040517f08c379a0000000000000000000000000000000000000000000000000000000008152600401620011a29062002e22565b60405180910390fd5b60008111620011f1576040517f08c379a0000000000000000000000000000000000000000000000000000000008152600401620011e89062002bb4565b60405180910390fd5b80600660003373ffffffffffffffffffffffffffffffffffffffff1673ffffffffffffffffffffffffffffffffffffffff1681526020019081526020016000206000828254620012429190620029b8565b9250508190555060008590508073ffffffffffffffffffffffffffffffffffffffff16638d4af16e8686856040518463ffffffff1660e01b81526004016200128d9392919062002e44565b600060405180830381600087803b158015620012a857600080fd5b505af1158015620012bd573d6000803e3d6000fd5b505050507f2fe3caa5e8aafaae3871e51abfa7a5eece0e884c4ebc7f1914e369afec1094f58686868686604051620012fa95949392919062002f03565b60405180910390a1505050505050565b6000811162001350576040517f08c379a0000000000000000000000000000000000000000000000000000000008152600401620013479062002bb4565b60405180910390fd5b600860008473ffffffffffffffffffffffffffffffffffffffff1673ffffffffffffffffffffffffffffffffffffffff16815260200190815260200160002060009054906101000a900460ff16620013df576040517f08c379a0000000000000000000000000000000000000000000000000000000008152600401620013d69062002fb7565b60405180910390fd5b60008390508073ffffffffffffffffffffffffffffffffffffffff16637aea5956846040518263ffffffff1660e01b81526004016200141f9190620022ae565b602060405180830381865afa1580156200143d573d6000803e3d6000fd5b505050506040513d601f19601f8201168201806040525081019062001463919062002ff0565b620014a5576040517f08c379a00000000000000000000000000000000000000000000000000000000081526004016200149c9062003072565b60405180910390fd5b60008173ffffffffffffffffffffffffffffffffffffffff1663fc0c546a6040518163ffffffff1660e01b8152600401602060405180830381865afa158015620014f3573d6000803e3d6000fd5b505050506040513d601f19601f82011682018060405250810190620015199190620030d9565b905060008173ffffffffffffffffffffffffffffffffffffffff166370a08231876040518263ffffffff1660e01b8152600401620015589190620022ae565b602060405180830381865afa15801562001576573d6000803e3d6000fd5b505050506040513d601f19601f820116820180604052508101906200159c919062003122565b9050600081111562001686576000806127106064600554620015bf919062003154565b87620015cc919062003154565b620015d89190620031e4565b905082811115620015ec57829150620015f0565b8091505b8473ffffffffffffffffffffffffffffffffffffffff166372746eaf600360009054906101000a900473ffffffffffffffffffffffffffffffffffffffff16846040518363ffffffff1660e01b81526004016200164f92919062002bd6565b600060405180830381600087803b1580156200166a57600080fd5b505af11580156200167f573d6000803e3d6000fd5b5050505050505b620016b53386868573ffffffffffffffffffffffffffffffffffffffff1662001f1a909392919063ffffffff16565b505050505050565b600160009054906101000a900473ffffffffffffffffffffffffffffffffffffffff1673ffffffffffffffffffffffffffffffffffffffff163373ffffffffffffffffffffffffffffffffffffffff161462001750576040517f08c379a0000000000000000000000000000000000000000000000000000000008152600401620017479062002db0565b60405180910390fd5b60008290508073ffffffffffffffffffffffffffffffffffffffff166350237c89836040518263ffffffff1660e01b8152600401620017909190620022ae565b600060405180830381600087803b158015620017ab57600080fd5b505af1158015620017c0573d6000803e3d6000fd5b505050507f446f98e2ea04ca52a95af1804f700682f720bae1def76ab4e1b4793fb517909c8383604051620017f792919062002d0d565b60405180910390a1505050565b60086020528060005260406000206000915054906101000a900460ff1681565b600082116200186a576040517f08c379a0000000000000000000000000000000000000000000000000000000008152600401620018619062002bb4565b60405180910390fd5b600860008473ffffffffffffffffffffffffffffffffffffffff1673ffffffffffffffffffffffffffffffffffffffff16815260200190815260200160002060009054906101000a900460ff16620018f9576040517f08c379a0000000000000000000000000000000000000000000000000000000008152600401620018f09062002fb7565b60405180910390fd5b600083905060008173ffffffffffffffffffffffffffffffffffffffff1663fc0c546a6040518163ffffffff1660e01b8152600401602060405180830381865afa1580156200194c573d6000803e3d6000fd5b505050506040513d601f19601f82011682018060405250810190620019729190620030d9565b90506000808273ffffffffffffffffffffffffffffffffffffffff166370a08231886040518263ffffffff1660e01b8152600401620019b29190620022ae565b602060405180830381865afa158015620019d0573d6000803e3d6000fd5b505050506040513d601f19601f82011682018060405250810190620019f6919062003122565b905084801562001a065750600081115b1562001ae8576000612710606460045462001a22919062003154565b8862001a2f919062003154565b62001a3b9190620031e4565b90508181111562001a4f5781925062001a53565b8092505b8473ffffffffffffffffffffffffffffffffffffffff166372746eaf600360009054906101000a900473ffffffffffffffffffffffffffffffffffffffff16856040518363ffffffff1660e01b815260040162001ab292919062002bd6565b600060405180830381600087803b15801562001acd57600080fd5b505af115801562001ae2573d6000803e3d6000fd5b50505050505b62001b173388888673ffffffffffffffffffffffffffffffffffffffff1662001f1a909392919063ffffffff16565b7f68ff2aa0443744f41b90cd3bdb18921eaf2afaa113bd0d1320b3c21a6916c74c33888860405162001b4c9392919062002e44565b60405180910390a150505050505050565b600260009054906101000a900473ffffffffffffffffffffffffffffffffffffffff1673ffffffffffffffffffffffffffffffffffffffff163373ffffffffffffffffffffffffffffffffffffffff161462001bf0576040517f08c379a000000000000000000000000000000000000000000000000000000000815260040162001be79062002967565b60405180910390fd5b6032811062001c36576040517f08c379a000000000000000000000000000000000000000000000000000000000815260040162001c2d9062002c53565b60405180910390fd5b806004819055507f95966fa5d3bf0eeab2989a10c5b5ebf4477420ab23e44e868b0c44df59aabb1160045460405162001c70919062002597565b60405180910390a150565b600260009054906101000a900473ffffffffffffffffffffffffffffffffffffffff1673ffffffffffffffffffffffffffffffffffffffff163373ffffffffffffffffffffffffffffffffffffffff161462001d0e576040517f08c379a000000000000000000000000000000000000000000000000000000000815260040162001d059062002967565b60405180910390fd5b80600260006101000a81548173ffffffffffffffffffffffffffffffffffffffff021916908373ffffffffffffffffffffffffffffffffffffffff1602179055507f4b85d278d7fab37dd38da666a3f2e8a3a8191b57d24327bffa8e66a60f698a69600260009054906101000a900473ffffffffffffffffffffffffffffffffffffffff1660405162001da29190620022ae565b60405180910390a150565b600360009054906101000a900473ffffffffffffffffffffffffffffffffffffffff1681565b600160009054906101000a900473ffffffffffffffffffffffffffffffffffffffff1673ffffffffffffffffffffffffffffffffffffffff163373ffffffffffffffffffffffffffffffffffffffff161462001e66576040517f08c379a000000000000000000000000000000000000000000000000000000000815260040162001e5d9062002db0565b60405180910390fd5b60008290508073ffffffffffffffffffffffffffffffffffffffff16632e11f00a836040518263ffffffff1660e01b815260040162001ea69190620022ae565b600060405180830381600087803b15801562001ec157600080fd5b505af115801562001ed6573d6000803e3d6000fd5b505050507f446f98e2ea04ca52a95af1804f700682f720bae1def76ab4e1b4793fb517909c838360405162001f0d92919062002d0d565b60405180910390a1505050565b62001fa1846323b872dd60e01b85858560405160240162001f3e9392919062002e44565b604051602081830303815290604052907bffffffffffffffffffffffffffffffffffffffffffffffffffffffff19166020820180517bffffffffffffffffffffffffffffffffffffffffffffffffffffffff838183161783525050505062001fa7565b50505050565b60006200200b826040518060400160405280602081526020017f5361666545524332303a206c6f772d6c6576656c2063616c6c206661696c65648152508573ffffffffffffffffffffffffffffffffffffffff16620020769092919063ffffffff16565b90506000815111156200207157808060200190518101906200202e919062002ff0565b62002070576040517f08c379a0000000000000000000000000000000000000000000000000000000008152600401620020679062003292565b60405180910390fd5b5b505050565b606062002087848460008562002090565b90509392505050565b606082471015620020d8576040517f08c379a0000000000000000000000000000000000000000000000000000000008152600401620020cf906200332a565b60405180910390fd5b6000808673ffffffffffffffffffffffffffffffffffffffff16858760405162002103919062003399565b60006040518083038185875af1925050503d806000811462002142576040519150601f19603f3d011682016040523d82523d6000602084013e62002147565b606091505b50915091506200215a8783838762002166565b92505050949350505050565b60608315620021d0576000835103620021c7576200218485620021e5565b620021c6576040517f08c379a0000000000000000000000000000000000000000000000000000000008152600401620021bd9062003402565b60405180910390fd5b5b829050620021dd565b620021dc838362002208565b5b949350505050565b6000808273ffffffffffffffffffffffffffffffffffffffff163b119050919050565b6000825111156200221c5781518083602001fd5b806040517f08c379a000000000000000000000000000000000000000000000000000000000815260040162002252919062003424565b60405180910390fd5b611556806200344983390190565b600073ffffffffffffffffffffffffffffffffffffffff82169050919050565b6000620022968262002269565b9050919050565b620022a88162002289565b82525050565b6000602082019050620022c560008301846200229d565b92915050565b6000604051905090565b600080fd5b600080fd5b620022ea8162002289565b8114620022f657600080fd5b50565b6000813590506200230a81620022df565b92915050565b600060208284031215620023295762002328620022d5565b5b60006200233984828501620022f9565b91505092915050565b6000819050919050565b620023578162002342565b81146200236357600080fd5b50565b60008135905062002377816200234c565b92915050565b60008060408385031215620023975762002396620022d5565b5b6000620023a78582860162002366565b9250506020620023ba8582860162002366565b9150509250929050565b600081519050919050565b600082825260208201905092915050565b6000819050602082019050919050565b620023fb8162002289565b82525050565b60006200240f8383620023f0565b60208301905092915050565b6000602082019050919050565b60006200243582620023c4565b620024418185620023cf565b93506200244e83620023e0565b8060005b838110156200248557815162002469888262002401565b975062002476836200241b565b92505060018101905062002452565b5085935050505092915050565b6200249d8162002342565b82525050565b60006040820190508181036000830152620024bf818562002428565b9050620024d0602083018462002492565b9392505050565b60008060408385031215620024f157620024f0620022d5565b5b60006200250185828601620022f9565b9250506020620025148582860162002366565b9150509250929050565b600060208284031215620025375762002536620022d5565b5b6000620025478482850162002366565b91505092915050565b600080604083850312156200256a5762002569620022d5565b5b60006200257a85828601620022f9565b92505060206200258d85828601620022f9565b9150509250929050565b6000602082019050620025ae600083018462002492565b92915050565b600080fd5b600080fd5b6000601f19601f8301169050919050565b7f4e487b7100000000000000000000000000000000000000000000000000000000600052604160045260246000fd5b6200260982620025be565b810181811067ffffffffffffffff821117156200262b576200262a620025cf565b5b80604052505050565b600062002640620022cb565b90506200264e8282620025fe565b919050565b600067ffffffffffffffff821115620026715762002670620025cf565b5b6200267c82620025be565b9050602081019050919050565b82818337600083830152505050565b6000620026af620026a98462002653565b62002634565b905082815260208101848484011115620026ce57620026cd620025b9565b5b620026db84828562002689565b509392505050565b600082601f830112620026fb57620026fa620025b4565b5b81356200270d84826020860162002698565b91505092915050565b600080600080600060a08688031215620027355762002734620022d5565b5b60006200274588828901620022f9565b95505060206200275888828901620022f9565b94505060406200276b88828901620022f9565b935050606086013567ffffffffffffffff8111156200278f576200278e620022da565b5b6200279d88828901620026e3565b9250506080620027b08882890162002366565b9150509295509295909350565b600080600060608486031215620027d957620027d8620022d5565b5b6000620027e986828701620022f9565b9350506020620027fc86828701620022f9565b92505060406200280f8682870162002366565b9150509250925092565b60008115159050919050565b620028308162002819565b82525050565b60006020820190506200284d600083018462002825565b92915050565b6200285e8162002819565b81146200286a57600080fd5b50565b6000813590506200287e8162002853565b92915050565b600080600060608486031215620028a0576200289f620022d5565b5b6000620028b086828701620022f9565b9350506020620028c38682870162002366565b9250506040620028d6868287016200286d565b9150509250925092565b600082825260208201905092915050565b7f596f7520617265206e6f742074686520676f7665726e616e636520636f756e6360008201527f696c000000000000000000000000000000000000000000000000000000000000602082015250565b60006200294f602283620028e0565b91506200295c82620028f1565b604082019050919050565b60006020820190508181036000830152620029828162002940565b9050919050565b7f4e487b7100000000000000000000000000000000000000000000000000000000600052601160045260246000fd5b6000620029c58262002342565b9150620029d28362002342565b925082821015620029e857620029e762002989565b5b828203905092915050565b600062002a008262002342565b915062002a0d8362002342565b9250827fffffffffffffffffffffffffffffffffffffffffffffffffffffffffffffffff0382111562002a455762002a4462002989565b5b828201905092915050565b7f4e487b7100000000000000000000000000000000000000000000000000000000600052603260045260246000fd5b600062002a8c8262002342565b91507fffffffffffffffffffffffffffffffffffffffffffffffffffffffffffffffff820362002ac15762002ac062002989565b5b600182019050919050565b7f596f7520617265206e6f742074686520696e746567726174696f6e20636f756e60008201527f63696c0000000000000000000000000000000000000000000000000000000000602082015250565b600062002b2a602383620028e0565b915062002b378262002acc565b604082019050919050565b6000602082019050818103600083015262002b5d8162002b1b565b9050919050565b7f416d6f756e74206d7573742062652067726561746572207468616e2030000000600082015250565b600062002b9c601d83620028e0565b915062002ba98262002b64565b602082019050919050565b6000602082019050818103600083015262002bcf8162002b8d565b9050919050565b600060408201905062002bed60008301856200229d565b62002bfc602083018462002492565b9392505050565b7f5468652066656520697320746f6f206869676800000000000000000000000000600082015250565b600062002c3b601383620028e0565b915062002c488262002c03565b602082019050919050565b6000602082019050818103600083015262002c6e8162002c2c565b9050919050565b7f42616c616e6365206d7573742062652067726561746572207468616e20616d6f60008201527f756e740000000000000000000000000000000000000000000000000000000000602082015250565b600062002cd3602383620028e0565b915062002ce08262002c75565b604082019050919050565b6000602082019050818103600083015262002d068162002cc4565b9050919050565b600060408201905062002d2460008301856200229d565b62002d3360208301846200229d565b9392505050565b7f596f7520617265206e6f7420746865206e6f6e2070726f66697420636f756e6360008201527f696c000000000000000000000000000000000000000000000000000000000000602082015250565b600062002d98602283620028e0565b915062002da58262002d3a565b604082019050919050565b6000602082019050818103600083015262002dcb8162002d89565b9050919050565b7f42616c616e6365206d7573742067726561746572207468616e20616d6f756e74600082015250565b600062002e0a602083620028e0565b915062002e178262002dd2565b602082019050919050565b6000602082019050818103600083015262002e3d8162002dfb565b9050919050565b600060608201905062002e5b60008301866200229d565b62002e6a60208301856200229d565b62002e79604083018462002492565b949350505050565b600081519050919050565b60005b8381101562002eac57808201518184015260208101905062002e8f565b8381111562002ebc576000848401525b50505050565b600062002ecf8262002e81565b62002edb8185620028e0565b935062002eed81856020860162002e8c565b62002ef881620025be565b840191505092915050565b600060a08201905062002f1a60008301886200229d565b62002f2960208301876200229d565b62002f3860408301866200229d565b818103606083015262002f4c818562002ec2565b905062002f5d608083018462002492565b9695505050505050565b7f506f6f6c20646f6573206e6f7420657869737400000000000000000000000000600082015250565b600062002f9f601383620028e0565b915062002fac8262002f67565b602082019050919050565b6000602082019050818103600083015262002fd28162002f90565b9050919050565b60008151905062002fea8162002853565b92915050565b600060208284031215620030095762003008620022d5565b5b6000620030198482850162002fd9565b91505092915050565b7f4e6f6e2070726f666974206973206e6f742077686974656c6973746564000000600082015250565b60006200305a601d83620028e0565b9150620030678262003022565b602082019050919050565b600060208201905081810360008301526200308d816200304b565b9050919050565b6000620030a18262002289565b9050919050565b620030b38162003094565b8114620030bf57600080fd5b50565b600081519050620030d381620030a8565b92915050565b600060208284031215620030f257620030f1620022d5565b5b60006200310284828501620030c2565b91505092915050565b6000815190506200311c816200234c565b92915050565b6000602082840312156200313b576200313a620022d5565b5b60006200314b848285016200310b565b91505092915050565b6000620031618262002342565b91506200316e8362002342565b9250817fffffffffffffffffffffffffffffffffffffffffffffffffffffffffffffffff0483118215151615620031aa57620031a962002989565b5b828202905092915050565b7f4e487b7100000000000000000000000000000000000000000000000000000000600052601260045260246000fd5b6000620031f18262002342565b9150620031fe8362002342565b925082620032115762003210620031b5565b5b828204905092915050565b7f5361666545524332303a204552433230206f7065726174696f6e20646964206e60008201527f6f74207375636365656400000000000000000000000000000000000000000000602082015250565b60006200327a602a83620028e0565b915062003287826200321c565b604082019050919050565b60006020820190508181036000830152620032ad816200326b565b9050919050565b7f416464726573733a20696e73756666696369656e742062616c616e636520666f60008201527f722063616c6c0000000000000000000000000000000000000000000000000000602082015250565b600062003312602683620028e0565b91506200331f82620032b4565b604082019050919050565b60006020820190508181036000830152620033458162003303565b9050919050565b600081519050919050565b600081905092915050565b60006200336f826200334c565b6200337b818562003357565b93506200338d81856020860162002e8c565b80840191505092915050565b6000620033a7828462003362565b915081905092915050565b7f416464726573733a2063616c6c20746f206e6f6e2d636f6e7472616374000000600082015250565b6000620033ea601d83620028e0565b9150620033f782620033b2565b602082019050919050565b600060208201905081810360008301526200341d81620033db565b9050919050565b6000602082019050818103600083015262003440818462002ec2565b90509291505056fe60c06040523480156200001157600080fd5b506040516200155638038062001556833981810160405281019062000037919062000111565b8173ffffffffffffffffffffffffffffffffffffffff1660808173ffffffffffffffffffffffffffffffffffffffff16815250508073ffffffffffffffffffffffffffffffffffffffff1660a08173ffffffffffffffffffffffffffffffffffffffff1681525050505062000158565b600080fd5b600073ffffffffffffffffffffffffffffffffffffffff82169050919050565b6000620000d982620000ac565b9050919050565b620000eb81620000cc565b8114620000f757600080fd5b50565b6000815190506200010b81620000e0565b92915050565b600080604083850312156200012b576200012a620000a7565b5b60006200013b85828601620000fa565b92505060206200014e85828601620000fa565b9150509250929050565b60805160a051611399620001bd60003960008181610187015281816102a6015281816102ca015281816103e90152818161059d01526107160152600081816104790152818161051a015281816106730152818161087701526108fd01526113996000f3fe608060405234801561001057600080fd5b50600436106100885760003560e01c806372746eaf1161005b57806372746eaf146100ff5780637aea59561461011b5780638d4af16e1461014b578063fc0c546a1461016757610088565b80632e11f00a1461008d578063481c6a75146100a957806350237c89146100c757806363b6b31f146100e3575b600080fd5b6100a760048036038101906100a29190610c9c565b610185565b005b6100b16102a4565b6040516100be9190610cd8565b60405180910390f35b6100e160048036038101906100dc9190610c9c565b6102c8565b005b6100fd60048036038101906100f89190610c9c565b6103e7565b005b61011960048036038101906101149190610d29565b61059b565b005b61013560048036038101906101309190610c9c565b6106f4565b6040516101429190610d84565b60405180910390f35b61016560048036038101906101609190610d9f565b610714565b005b61016f6108fb565b60405161017c9190610e51565b60405180910390f35b7f000000000000000000000000000000000000000000000000000000000000000073ffffffffffffffffffffffffffffffffffffffff163373ffffffffffffffffffffffffffffffffffffffff1614610213576040517f08c379a000000000000000000000000000000000000000000000000000000000815260040161020a90610ec9565b60405180910390fd5b60016000808373ffffffffffffffffffffffffffffffffffffffff1673ffffffffffffffffffffffffffffffffffffffff16815260200190815260200160002060006101000a81548160ff0219169083151502179055507f48cd054a0d5f7a715ef556531456f832fa4713887fd9619b1994499164bfdb34816040516102999190610cd8565b60405180910390a150565b7f000000000000000000000000000000000000000000000000000000000000000081565b7f000000000000000000000000000000000000000000000000000000000000000073ffffffffffffffffffffffffffffffffffffffff163373ffffffffffffffffffffffffffffffffffffffff1614610356576040517f08c379a000000000000000000000000000000000000000000000000000000000815260040161034d90610ec9565b60405180910390fd5b60008060008373ffffffffffffffffffffffffffffffffffffffff1673ffffffffffffffffffffffffffffffffffffffff16815260200190815260200160002060006101000a81548160ff0219169083151502179055507ff4c0882c02504b57aef9b59434f24674dca5b42da5bc5a3da8782b4ec472f264816040516103dc9190610cd8565b60405180910390a150565b7f000000000000000000000000000000000000000000000000000000000000000073ffffffffffffffffffffffffffffffffffffffff163373ffffffffffffffffffffffffffffffffffffffff1614610475576040517f08c379a000000000000000000000000000000000000000000000000000000000815260040161046c90610ec9565b60405180910390fd5b60007f000000000000000000000000000000000000000000000000000000000000000073ffffffffffffffffffffffffffffffffffffffff166370a08231306040518263ffffffff1660e01b81526004016104d09190610cd8565b602060405180830381865afa1580156104ed573d6000803e3d6000fd5b505050506040513d601f19601f820116820180604052508101906105119190610efe565b905061055e82827f000000000000000000000000000000000000000000000000000000000000000073ffffffffffffffffffffffffffffffffffffffff1661091f9092919063ffffffff16565b7f33f3dfe3a9fa76b24dccfdddcd960aabe6341398f61e0b841cb1874a9d129a17828260405161058f929190610f3a565b60405180910390a15050565b7f000000000000000000000000000000000000000000000000000000000000000073ffffffffffffffffffffffffffffffffffffffff163373ffffffffffffffffffffffffffffffffffffffff1614610629576040517f08c379a000000000000000000000000000000000000000000000000000000000815260040161062090610ec9565b60405180910390fd5b6000811161066c576040517f08c379a000000000000000000000000000000000000000000000000000000000815260040161066390610faf565b60405180910390fd5b6106b782827f000000000000000000000000000000000000000000000000000000000000000073ffffffffffffffffffffffffffffffffffffffff1661091f9092919063ffffffff16565b7f075a2720282fdf622141dae0b048ef90a21a7e57c134c76912d19d006b3b3f6f82826040516106e8929190610f3a565b60405180910390a15050565b60006020528060005260406000206000915054906101000a900460ff1681565b7f000000000000000000000000000000000000000000000000000000000000000073ffffffffffffffffffffffffffffffffffffffff163373ffffffffffffffffffffffffffffffffffffffff16146107a2576040517f08c379a000000000000000000000000000000000000000000000000000000000815260040161079990610ec9565b60405180910390fd5b6000808473ffffffffffffffffffffffffffffffffffffffff1673ffffffffffffffffffffffffffffffffffffffff16815260200190815260200160002060009054906101000a900460ff1661082d576040517f08c379a00000000000000000000000000000000000000000000000000000000081526004016108249061101b565b60405180910390fd5b60008111610870576040517f08c379a000000000000000000000000000000000000000000000000000000000815260040161086790610faf565b60405180910390fd5b6108bb83827f000000000000000000000000000000000000000000000000000000000000000073ffffffffffffffffffffffffffffffffffffffff1661091f9092919063ffffffff16565b7f38c2add40393f09414b9822c439c98b33304746fdd1a9a9d7c4653f35bf908248284836040516108ee9392919061103b565b60405180910390a1505050565b7f000000000000000000000000000000000000000000000000000000000000000081565b6109a08363a9059cbb60e01b848460405160240161093e929190610f3a565b604051602081830303815290604052907bffffffffffffffffffffffffffffffffffffffffffffffffffffffff19166020820180517bffffffffffffffffffffffffffffffffffffffffffffffffffffffff83818316178352505050506109a5565b505050565b6000610a07826040518060400160405280602081526020017f5361666545524332303a206c6f772d6c6576656c2063616c6c206661696c65648152508573ffffffffffffffffffffffffffffffffffffffff16610a6c9092919063ffffffff16565b9050600081511115610a675780806020019051810190610a27919061109e565b610a66576040517f08c379a0000000000000000000000000000000000000000000000000000000008152600401610a5d9061113d565b60405180910390fd5b5b505050565b6060610a7b8484600085610a84565b90509392505050565b606082471015610ac9576040517f08c379a0000000000000000000000000000000000000000000000000000000008152600401610ac0906111cf565b60405180910390fd5b6000808673ffffffffffffffffffffffffffffffffffffffff168587604051610af29190611269565b60006040518083038185875af1925050503d8060008114610b2f576040519150601f19603f3d011682016040523d82523d6000602084013e610b34565b606091505b5091509150610b4587838387610b51565b92505050949350505050565b60608315610bb3576000835103610bab57610b6b85610bc6565b610baa576040517f08c379a0000000000000000000000000000000000000000000000000000000008152600401610ba1906112cc565b60405180910390fd5b5b829050610bbe565b610bbd8383610be9565b5b949350505050565b6000808273ffffffffffffffffffffffffffffffffffffffff163b119050919050565b600082511115610bfc5781518083602001fd5b806040517f08c379a0000000000000000000000000000000000000000000000000000000008152600401610c309190611341565b60405180910390fd5b600080fd5b600073ffffffffffffffffffffffffffffffffffffffff82169050919050565b6000610c6982610c3e565b9050919050565b610c7981610c5e565b8114610c8457600080fd5b50565b600081359050610c9681610c70565b92915050565b600060208284031215610cb257610cb1610c39565b5b6000610cc084828501610c87565b91505092915050565b610cd281610c5e565b82525050565b6000602082019050610ced6000830184610cc9565b92915050565b6000819050919050565b610d0681610cf3565b8114610d1157600080fd5b50565b600081359050610d2381610cfd565b92915050565b60008060408385031215610d4057610d3f610c39565b5b6000610d4e85828601610c87565b9250506020610d5f85828601610d14565b9150509250929050565b60008115159050919050565b610d7e81610d69565b82525050565b6000602082019050610d996000830184610d75565b92915050565b600080600060608486031215610db857610db7610c39565b5b6000610dc686828701610c87565b9350506020610dd786828701610c87565b9250506040610de886828701610d14565b9150509250925092565b6000819050919050565b6000610e17610e12610e0d84610c3e565b610df2565b610c3e565b9050919050565b6000610e2982610dfc565b9050919050565b6000610e3b82610e1e565b9050919050565b610e4b81610e30565b82525050565b6000602082019050610e666000830184610e42565b92915050565b600082825260208201905092915050565b7f596f7520617265206e6f7420746865206d616e61676572000000000000000000600082015250565b6000610eb3601783610e6c565b9150610ebe82610e7d565b602082019050919050565b60006020820190508181036000830152610ee281610ea6565b9050919050565b600081519050610ef881610cfd565b92915050565b600060208284031215610f1457610f13610c39565b5b6000610f2284828501610ee9565b91505092915050565b610f3481610cf3565b82525050565b6000604082019050610f4f6000830185610cc9565b610f5c6020830184610f2b565b9392505050565b7f416d6f756e74206d7573742062652067726561746572207468616e2030000000600082015250565b6000610f99601d83610e6c565b9150610fa482610f63565b602082019050919050565b60006020820190508181036000830152610fc881610f8c565b9050919050565b7f4e6f7420612077686974656c6973746564206e6f6e70726f6669740000000000600082015250565b6000611005601b83610e6c565b915061101082610fcf565b602082019050919050565b6000602082019050818103600083015261103481610ff8565b9050919050565b60006060820190506110506000830186610cc9565b61105d6020830185610cc9565b61106a6040830184610f2b565b949350505050565b61107b81610d69565b811461108657600080fd5b50565b60008151905061109881611072565b92915050565b6000602082840312156110b4576110b3610c39565b5b60006110c284828501611089565b91505092915050565b7f5361666545524332303a204552433230206f7065726174696f6e20646964206e60008201527f6f74207375636365656400000000000000000000000000000000000000000000602082015250565b6000611127602a83610e6c565b9150611132826110cb565b604082019050919050565b600060208201905081810360008301526111568161111a565b9050919050565b7f416464726573733a20696e73756666696369656e742062616c616e636520666f60008201527f722063616c6c0000000000000000000000000000000000000000000000000000602082015250565b60006111b9602683610e6c565b91506111c48261115d565b604082019050919050565b600060208201905081810360008301526111e8816111ac565b9050919050565b600081519050919050565b600081905092915050565b60005b83811015611223578082015181840152602081019050611208565b83811115611232576000848401525b50505050565b6000611243826111ef565b61124d81856111fa565b935061125d818560208601611205565b80840191505092915050565b60006112758284611238565b915081905092915050565b7f416464726573733a2063616c6c20746f206e6f6e2d636f6e7472616374000000600082015250565b60006112b6601d83610e6c565b91506112c182611280565b602082019050919050565b600060208201905081810360008301526112e5816112a9565b9050919050565b600081519050919050565b6000601f19601f8301169050919050565b6000611313826112ec565b61131d8185610e6c565b935061132d818560208601611205565b611336816112f7565b840191505092915050565b6000602082019050818103600083015261135b8184611308565b90509291505056fea26469706673582212202fd42ecedba53672f80e0e2befba5b66ca715728df44d8333ffdc98138d4d0f464736f6c634300080e0033a26469706673582212202a180485e8390dc6a00023da7d7108c7980ebfb6adedc2a7f58be81f1db3fa9364736f6c634300080e0033",
  "linkReferences": {},
  "deployedLinkReferences": {}
}